{"abi":[{"type":"constructor","inputs":[{"name":"name_","type":"string","internalType":"string"},{"name":"symbol_","type":"string","internalType":"string"}],"stateMutability":"nonpayable"},{"type":"function","name":"approve","inputs":[{"name":"to","type":"address","internalType":"address"},{"name":"tokenId","type":"uint256","internalType":"uint256"}],"outputs":[],"stateMutability":"nonpayable"},{"type":"function","name":"balanceOf","inputs":[{"name":"owner","type":"address","internalType":"address"}],"outputs":[{"name":"","type":"uint256","internalType":"uint256"}],"stateMutability":"view"},{"type":"function","name":"claimVerifiedIdentityBadge","inputs":[],"outputs":[],"stateMutability":"nonpayable"},{"type":"function","name":"claimVerifiedIdentityBadgeWithAutoRegister","inputs":[{"name":"scoreHash","type":"bytes32","internalType":"bytes32"}],"outputs":[],"stateMutability":"nonpayable"},{"type":"function","name":"getApproved","inputs":[{"name":"tokenId","type":"uint256","internalType":"uint256"}],"outputs":[{"name":"","type":"address","internalType":"address"}],"stateMutability":"view"},{"type":"function","name":"getBadgeType","inputs":[{"name":"tokenId","type":"uint256","internalType":"uint256"}],"outputs":[{"name":"","type":"uint8","internalType":"enum IBadgeNFT.BadgeType"}],"stateMutability":"view"},{"type":"function","name":"getBadges","inputs":[{"name":"user","type":"address","internalType":"address"}],"outputs":[{"name":"","type":"uint8[]","internalType":"enum IBadgeNFT.BadgeType[]"}],"stateMutability":"view"},{"type":"function","name":"getTokenId","inputs":[{"name":"user","type":"address","internalType":"address"},{"name":"badgeType","type":"uint8","internalType":"enum IBadgeNFT.BadgeType"}],"outputs":[{"name":"","type":"uint256","internalType":"uint256"}],"stateMutability":"view"},{"type":"function","name":"grantMinter","inputs":[{"name":"minter","type":"address","internalType":"address"}],"outputs":[],"stateMutability":"nonpayable"},{"type":"function","name":"hasBadge","inputs":[{"name":"user","type":"address","internalType":"address"},{"name":"badgeType","type":"uint8","internalType":"enum IBadgeNFT.BadgeType"}],"outputs":[{"name":"","type":"bool","internalType":"bool"}],"stateMutability":"view"},{"type":"function","name":"isApprovedForAll","inputs":[{"name":"owner","type":"address","internalType":"address"},{"name":"operator","type":"address","internalType":"address"}],"outputs":[{"name":"","type":"bool","internalType":"bool"}],"stateMutability":"view"},{"type":"function","name":"isMinter","inputs":[{"name":"account","type":"address","internalType":"address"}],"outputs":[{"name":"","type":"bool","internalType":"bool"}],"stateMutability":"view"},{"type":"function","name":"mintBadge","inputs":[{"name":"user","type":"address","internalType":"address"},{"name":"badgeType","type":"uint8","internalType":"enum IBadgeNFT.BadgeType"}],"outputs":[],"stateMutability":"nonpayable"},{"type":"function","name":"name","inputs":[],"outputs":[{"name":"","type":"string","internalType":"string"}],"stateMutability":"view"},{"type":"function","name":"owner","inputs":[],"outputs":[{"name":"","type":"address","internalType":"address"}],"stateMutability":"view"},{"type":"function","name":"ownerOf","inputs":[{"name":"tokenId","type":"uint256","internalType":"uint256"}],"outputs":[{"name":"","type":"address","internalType":"address"}],"stateMutability":"view"},{"type":"function","name":"renounceOwnership","inputs":[],"outputs":[],"stateMutability":"nonpayable"},{"type":"function","name":"revokeBadge","inputs":[{"name":"user","type":"address","internalType":"address"},{"name":"badgeType","type":"uint8","internalType":"enum IBadgeNFT.BadgeType"}],"outputs":[],"stateMutability":"nonpayable"},{"type":"function","name":"revokeMinter","inputs":[{"name":"minter","type":"address","internalType":"address"}],"outputs":[],"stateMutability":"nonpayable"},{"type":"function","name":"safeTransferFrom","inputs":[{"name":"from","type":"address","internalType":"address"},{"name":"to","type":"address","internalType":"address"},{"name":"tokenId","type":"uint256","internalType":"uint256"}],"outputs":[],"stateMutability":"nonpayable"},{"type":"function","name":"safeTransferFrom","inputs":[{"name":"from","type":"address","internalType":"address"},{"name":"to","type":"address","internalType":"address"},{"name":"tokenId","type":"uint256","internalType":"uint256"},{"name":"data","type":"bytes","internalType":"bytes"}],"outputs":[],"stateMutability":"nonpayable"},{"type":"function","name":"scoreRegistry","inputs":[],"outputs":[{"name":"","type":"address","internalType":"contract IScoreRegistry"}],"stateMutability":"view"},{"type":"function","name":"setApprovalForAll","inputs":[{"name":"operator","type":"address","internalType":"address"},{"name":"approved","type":"bool","internalType":"bool"}],"outputs":[],"stateMutability":"nonpayable"},{"type":"function","name":"setBaseURI","inputs":[{"name":"baseURI","type":"string","internalType":"string"}],"outputs":[],"stateMutability":"nonpayable"},{"type":"function","name":"setScoreRegistry","inputs":[{"name":"_scoreRegistry","type":"address","internalType":"address"}],"outputs":[],"stateMutability":"nonpayable"},{"type":"function","name":"supportsInterface","inputs":[{"name":"interfaceId","type":"bytes4","internalType":"bytes4"}],"outputs":[{"name":"","type":"bool","internalType":"bool"}],"stateMutability":"view"},{"type":"function","name":"symbol","inputs":[],"outputs":[{"name":"","type":"string","internalType":"string"}],"stateMutability":"view"},{"type":"function","name":"tokenByIndex","inputs":[{"name":"index","type":"uint256","internalType":"uint256"}],"outputs":[{"name":"","type":"uint256","internalType":"uint256"}],"stateMutability":"view"},{"type":"function","name":"tokenOfOwnerByIndex","inputs":[{"name":"owner","type":"address","internalType":"address"},{"name":"index","type":"uint256","internalType":"uint256"}],"outputs":[{"name":"","type":"uint256","internalType":"uint256"}],"stateMutability":"view"},{"type":"function","name":"tokenURI","inputs":[{"name":"tokenId","type":"uint256","internalType":"uint256"}],"outputs":[{"name":"","type":"string","internalType":"string"}],"stateMutability":"view"},{"type":"function","name":"totalSupply","inputs":[],"outputs":[{"name":"","type":"uint256","internalType":"uint256"}],"stateMutability":"view"},{"type":"function","name":"transferFrom","inputs":[{"name":"from","type":"address","internalType":"address"},{"name":"to","type":"address","internalType":"address"},{"name":"tokenId","type":"uint256","internalType":"uint256"}],"outputs":[],"stateMutability":"nonpayable"},{"type":"function","name":"transferOwnership","inputs":[{"name":"newOwner","type":"address","internalType":"address"}],"outputs":[],"stateMutability":"nonpayable"},{"type":"event","name":"Approval","inputs":[{"name":"owner","type":"address","indexed":true,"internalType":"address"},{"name":"approved","type":"address","indexed":true,"internalType":"address"},{"name":"tokenId","type":"uint256","indexed":true,"internalType":"uint256"}],"anonymous":false},{"type":"event","name":"ApprovalForAll","inputs":[{"name":"owner","type":"address","indexed":true,"internalType":"address"},{"name":"operator","type":"address","indexed":true,"internalType":"address"},{"name":"approved","type":"bool","indexed":false,"internalType":"bool"}],"anonymous":false},{"type":"event","name":"BadgeMinted","inputs":[{"name":"user","type":"address","indexed":true,"internalType":"address"},{"name":"badgeType","type":"uint8","indexed":true,"internalType":"enum IBadgeNFT.BadgeType"},{"name":"tokenId","type":"uint256","indexed":false,"internalType":"uint256"}],"anonymous":false},{"type":"event","name":"BadgeRevoked","inputs":[{"name":"user","type":"address","indexed":true,"internalType":"address"},{"name":"badgeType","type":"uint8","indexed":true,"internalType":"enum IBadgeNFT.BadgeType"},{"name":"tokenId","type":"uint256","indexed":false,"internalType":"uint256"}],"anonymous":false},{"type":"event","name":"OwnershipTransferred","inputs":[{"name":"previousOwner","type":"address","indexed":true,"internalType":"address"},{"name":"newOwner","type":"address","indexed":true,"internalType":"address"}],"anonymous":false},{"type":"event","name":"Transfer","inputs":[{"name":"from","type":"address","indexed":true,"internalType":"address"},{"name":"to","type":"address","indexed":true,"internalType":"address"},{"name":"tokenId","type":"uint256","indexed":true,"internalType":"uint256"}],"anonymous":false},{"type":"error","name":"BadgeAlreadyOwned","inputs":[]},{"type":"error","name":"BadgeNotOwned","inputs":[]},{"type":"error","name":"ERC721EnumerableForbiddenBatchMint","inputs":[]},{"type":"error","name":"ERC721IncorrectOwner","inputs":[{"name":"sender","type":"address","internalType":"address"},{"name":"tokenId","type":"uint256","internalType":"uint256"},{"name":"owner","type":"address","internalType":"address"}]},{"type":"error","name":"ERC721InsufficientApproval","inputs":[{"name":"operator","type":"address","internalType":"address"},{"name":"tokenId","type":"uint256","internalType":"uint256"}]},{"type":"error","name":"ERC721InvalidApprover","inputs":[{"name":"approver","type":"address","internalType":"address"}]},{"type":"error","name":"ERC721InvalidOperator","inputs":[{"name":"operator","type":"address","internalType":"address"}]},{"type":"error","name":"ERC721InvalidOwner","inputs":[{"name":"owner","type":"address","internalType":"address"}]},{"type":"error","name":"ERC721InvalidReceiver","inputs":[{"name":"receiver","type":"address","internalType":"address"}]},{"type":"error","name":"ERC721InvalidSender","inputs":[{"name":"sender","type":"address","internalType":"address"}]},{"type":"error","name":"ERC721NonexistentToken","inputs":[{"name":"tokenId","type":"uint256","internalType":"uint256"}]},{"type":"error","name":"ERC721OutOfBoundsIndex","inputs":[{"name":"owner","type":"address","internalType":"address"},{"name":"index","type":"uint256","internalType":"uint256"}]},{"type":"error","name":"NotMinter","inputs":[]},{"type":"error","name":"NotRegisteredInScoreRegistry","inputs":[]},{"type":"error","name":"OwnableInvalidOwner","inputs":[{"name":"owner","type":"address","internalType":"address"}]},{"type":"error","name":"OwnableUnauthorizedAccount","inputs":[{"name":"account","type":"address","internalType":"address"}]},{"type":"error","name":"ScoreRegistryNotSet","inputs":[]},{"type":"error","name":"SoulboundToken","inputs":[]}],"bytecode":{"object":"0x608060405234801561000f575f80fd5b5060405161263f38038061263f83398101604081905261002e91610191565b3382825f61003c838261027a565b506001610049828261027a565b5050506001600160a01b03811661007957604051631e4fbdf760e01b81525f600482015260240160405180910390fd5b610082816100a3565b5050335f908152600c60205260409020805460ff1916600117905550610334565b600a80546001600160a01b038381166001600160a01b0319831681179093556040519116919082907f8be0079c531659141344cd1fd0a4f28419497f9722a3daafe3b4186f6b6457e0905f90a35050565b634e487b7160e01b5f52604160045260245ffd5b5f82601f830112610117575f80fd5b81516001600160401b03811115610130576101306100f4565b604051601f8201601f19908116603f011681016001600160401b038111828210171561015e5761015e6100f4565b604052818152838201602001851015610175575f80fd5b8160208501602083015e5f918101602001919091529392505050565b5f80604083850312156101a2575f80fd5b82516001600160401b038111156101b7575f80fd5b6101c385828601610108565b602085015190935090506001600160401b038111156101e0575f80fd5b6101ec85828601610108565b9150509250929050565b600181811c9082168061020a57607f821691505b60208210810361022857634e487b7160e01b5f52602260045260245ffd5b50919050565b601f82111561027557805f5260205f20601f840160051c810160208510156102535750805b601f840160051c820191505b81811015610272575f815560010161025f565b50505b505050565b81516001600160401b03811115610293576102936100f4565b6102a7816102a184546101f6565b8461022e565b6020601f8211600181146102d9575f83156102c25750848201515b5f19600385901b1c1916600184901b178455610272565b5f84815260208120601f198516915b8281101561030857878501518255602094850194600190920191016102e8565b508482101561032557868401515f19600387901b60f8161c191681555b50505050600190811b01905550565b6122fe806103415f395ff3fe608060405234801561000f575f80fd5b50600436106101f2575f3560e01c80636352211e11610114578063aa271e1a116100a9578063cfbd488511610079578063cfbd48851461043c578063d64762241461044f578063e0e5fc4c14610462578063e985e9c514610491578063f2fde38b146104a4575f80fd5b8063aa271e1a146103d8578063b88d4fde14610403578063c87b56dd14610416578063cb306eb714610429575f80fd5b806395d89b41116100e457806395d89b41146103a2578063a22cb465146103aa578063a975b127146103bd578063aa131a69146103c5575f80fd5b80636352211e1461036357806370a0823114610376578063715018a6146103895780638da5cb5b14610391575f80fd5b80632f745c591161018a578063450f9d491161015a578063450f9d49146103175780634f6ccce71461032a57806355f804b31461033d5780635eb6ee8e14610350575f80fd5b80632f745c59146102cb5780633af0c688146102de5780633eb8104a146102f157806342842e0e14610304575f80fd5b8063095ea7b3116101c5578063095ea7b31461027e57806318160ddd1461029357806323b872dd146102a5578063261707fa146102b8575f80fd5b806301ffc9a7146101f657806303828e451461021e57806306fdde031461023e578063081812fc14610253575b5f80fd5b610209610204366004611d12565b6104b7565b60405190151581526020015b60405180910390f35b61023161022c366004611d48565b6104e1565b6040516102159190611d95565b610246610691565b6040516102159190611e0d565b610266610261366004611e1f565b610720565b6040516001600160a01b039091168152602001610215565b61029161028c366004611e36565b610747565b005b6008545b604051908152602001610215565b6102916102b3366004611e5e565b610756565b6102916102c6366004611d48565b6107e4565b6102976102d9366004611e36565b61080f565b6102096102ec366004611e98565b610872565b601154610266906001600160a01b031681565b610291610312366004611e5e565b6108c7565b610291610325366004611e98565b6108e6565b610297610338366004611e1f565b610ac6565b61029161034b366004611f5b565b610b1b565b61029161035e366004611d48565b610b2f565b610266610371366004611e1f565b610b59565b610297610384366004611d48565b610b63565b610291610ba8565b600a546001600160a01b0316610266565b610246610bbb565b6102916103b8366004611fad565b610bca565b610291610bd5565b6102916103d3366004611e98565b610d65565b6102096103e6366004611d48565b6001600160a01b03165f908152600c602052604090205460ff1690565b610291610411366004611fd7565b610f4a565b610246610424366004611e1f565b610f61565b610297610437366004611e98565b610fc6565b61029161044a366004611d48565b611017565b61029161045d366004611e1f565b61103f565b610484610470366004611e1f565b5f908152600f602052604090205460ff1690565b604051610215919061204e565b61020961049f36600461205c565b611217565b6102916104b2366004611d48565b611244565b5f6001600160e01b0319821663780e9d6360e01b14806104db57506104db82611281565b92915050565b60605f805b6005811015610569576001600160a01b0384165f908152600d602052604081209082600481111561051957610519611d61565b600481111561052a5761052a611d61565b600481111561053b5761053b611d61565b815260208101919091526040015f205460ff1615610561578161055d816120a1565b9250505b6001016104e6565b505f8167ffffffffffffffff81111561058457610584611ed0565b6040519080825280602002602001820160405280156105ad578160200160208202803683370190505b5090505f805b6005811015610687576001600160a01b0386165f908152600d60205260408120908260048111156105e6576105e6611d61565b60048111156105f7576105f7611d61565b600481111561060857610608611d61565b815260208101919091526040015f205460ff161561067f5780600481111561063257610632611d61565b838361063d816120a1565b94508151811061064f5761064f6120b9565b6020026020010190600481111561066857610668611d61565b9081600481111561067b5761067b611d61565b9052505b6001016105b3565b5090949350505050565b60605f805461069f906120cd565b80601f01602080910402602001604051908101604052809291908181526020018280546106cb906120cd565b80156107165780601f106106ed57610100808354040283529160200191610716565b820191905f5260205f20905b8154815290600101906020018083116106f957829003601f168201915b5050505050905090565b5f61072a826112d0565b505f828152600460205260409020546001600160a01b03166104db565b610752828233611308565b5050565b6001600160a01b03821661078457604051633250574960e11b81525f60048201526024015b60405180910390fd5b5f610790838333611315565b9050836001600160a01b0316816001600160a01b0316146107de576040516364283d7b60e01b81526001600160a01b038086166004830152602482018490528216604482015260640161077b565b50505050565b6107ec611375565b6001600160a01b03165f908152600c60205260409020805460ff19166001179055565b5f61081983610b63565b821061084a5760405163295f44f760e21b81526001600160a01b03841660048201526024810183905260440161077b565b506001600160a01b03919091165f908152600660209081526040808320938352929052205490565b6001600160a01b0382165f908152600d602052604081208183600481111561089c5761089c611d61565b60048111156108ad576108ad611d61565b815260208101919091526040015f205460ff169392505050565b6108e183838360405180602001604052805f815250610f4a565b505050565b6108ee611375565b6001600160a01b0382165f908152600d602052604081209082600481111561091857610918611d61565b600481111561092957610929611d61565b815260208101919091526040015f205460ff1661095957604051637920906f60e11b815260040160405180910390fd5b6001600160a01b0382165f908152600e602052604081208183600481111561098357610983611d61565b600481111561099457610994611d61565b81526020019081526020015f205490506109ad816113a2565b6001600160a01b0383165f908152600d60205260408120818460048111156109d7576109d7611d61565b60048111156109e8576109e8611d61565b815260208082019290925260409081015f908120805460ff1916941515949094179093556001600160a01b0386168352600e909152812090836004811115610a3257610a32611d61565b6004811115610a4357610a43611d61565b815260208082019290925260409081015f908120819055838152600f9092529020805460ff19169055816004811115610a7e57610a7e611d61565b836001600160a01b03167fe5c9617c4cf0490c873e6a19cf68a7b11aae5a14a658aefb16f630963423322083604051610ab991815260200190565b60405180910390a3505050565b5f610ad060085490565b8210610af85760405163295f44f760e21b81525f60048201526024810183905260440161077b565b60088281548110610b0b57610b0b6120b9565b905f5260205f2001549050919050565b610b23611375565b60106107528282612149565b610b37611375565b601180546001600160a01b0319166001600160a01b0392909216919091179055565b5f6104db826112d0565b5f6001600160a01b038216610b8d576040516322718ad960e21b81525f600482015260240161077b565b506001600160a01b03165f9081526003602052604090205490565b610bb0611375565b610bb95f6113da565b565b60606001805461069f906120cd565b61075233838361142b565b6011546001600160a01b0316610bfe5760405163769e5f3160e11b815260040160405180910390fd5b60115460405163c3c5a54760e01b81523360048201526001600160a01b039091169063c3c5a54790602401602060405180830381865afa158015610c44573d5f803e3d5ffd5b505050506040513d601f19601f82011682018060405250810190610c689190612204565b610c8557604051633fd4049760e01b815260040160405180910390fd5b335f908152600d6020908152604080832083805290915290205460ff1615610cc05760405163541fbbf360e11b815260040160405180910390fd5b600b80545f9182610cd0836120a1565b919050559050610ce033826114c1565b335f818152600d602090815260408083208380528252808320805460ff19908116600117909155848452600e83528184208480528352818420869055858452600f835281842080549091169055805185815290519293927f0dbdb7726a1704da165dee8b96cec65a9919e80ca5b8403954b77af3eaa7b26c929181900390910190a350565b335f908152600c602052604090205460ff16610d9457604051633e34a41b60e21b815260040160405180910390fd5b6001600160a01b0382165f908152600d6020526040812090826004811115610dbe57610dbe611d61565b6004811115610dcf57610dcf611d61565b815260208101919091526040015f205460ff1615610e005760405163541fbbf360e11b815260040160405180910390fd5b600b80545f9182610e10836120a1565b919050559050610e2083826114c1565b6001600160a01b0383165f908152600d60205260408120600191846004811115610e4c57610e4c611d61565b6004811115610e5d57610e5d611d61565b815260208082019290925260409081015f908120805460ff1916941515949094179093556001600160a01b0386168352600e90915281208291846004811115610ea857610ea8611d61565b6004811115610eb957610eb9611d61565b815260208082019290925260409081015f90812093909355838352600f9091529020805483919060ff19166001836004811115610ef857610ef8611d61565b0217905550816004811115610f0f57610f0f611d61565b836001600160a01b03167f0dbdb7726a1704da165dee8b96cec65a9919e80ca5b8403954b77af3eaa7b26c83604051610ab991815260200190565b610f55848484610756565b6107de848484846114da565b6060610f6c826112d0565b505f610f76611600565b90505f815111610f945760405180602001604052805f815250610fbf565b80610f9e8461160f565b604051602001610faf929190612236565b6040516020818303038152906040525b9392505050565b6001600160a01b0382165f908152600e6020526040812081836004811115610ff057610ff0611d61565b600481111561100157611001611d61565b81526020019081526020015f2054905092915050565b61101f611375565b6001600160a01b03165f908152600c60205260409020805460ff19169055565b6011546001600160a01b03166110685760405163769e5f3160e11b815260040160405180910390fd5b335f908152600d6020908152604080832083805290915290205460ff16156110a35760405163541fbbf360e11b815260040160405180910390fd5b60115460405163c3c5a54760e01b81523360048201526001600160a01b039091169063c3c5a54790602401602060405180830381865afa1580156110e9573d5f803e3d5ffd5b505050506040513d601f19601f8201168201806040525081019061110d9190612204565b6111715760115460405163052a10f360e11b8152336004820152602481018390526001600160a01b0390911690630a5421e6906044015f604051808303815f87803b15801561115a575f80fd5b505af115801561116c573d5f803e3d5ffd5b505050505b600b80545f9182611181836120a1565b91905055905061119133826114c1565b335f818152600d602090815260408083208380528252808320805460ff19908116600117909155848452600e83528184208480528352818420869055858452600f835281842080549091169055805185815290519293927f0dbdb7726a1704da165dee8b96cec65a9919e80ca5b8403954b77af3eaa7b26c929181900390910190a35050565b6001600160a01b039182165f90815260056020908152604080832093909416825291909152205460ff1690565b61124c611375565b6001600160a01b03811661127557604051631e4fbdf760e01b81525f600482015260240161077b565b61127e816113da565b50565b5f6001600160e01b031982166380ac58cd60e01b14806112b157506001600160e01b03198216635b5e139f60e01b145b806104db57506301ffc9a760e01b6001600160e01b03198316146104db565b5f818152600260205260408120546001600160a01b0316806104db57604051637e27328960e01b81526004810184905260240161077b565b6108e1838383600161169f565b5f828152600260205260408120546001600160a01b0316801580159061134357506001600160a01b03851615155b1561136157604051636e10574960e01b815260040160405180910390fd5b61136c8585856117a3565b95945050505050565b600a546001600160a01b03163314610bb95760405163118cdaa760e01b815233600482015260240161077b565b5f6113ae5f835f611315565b90506001600160a01b03811661075257604051637e27328960e01b81526004810183905260240161077b565b600a80546001600160a01b038381166001600160a01b0319831681179093556040519116919082907f8be0079c531659141344cd1fd0a4f28419497f9722a3daafe3b4186f6b6457e0905f90a35050565b6001600160a01b03821661145d57604051630b61174360e31b81526001600160a01b038316600482015260240161077b565b6001600160a01b038381165f81815260056020908152604080832094871680845294825291829020805460ff191686151590811790915591519182527f17307eab39ab6107e8899845ad3d59bd9653f200f220920489ca2b5937696c319101610ab9565b610752828260405180602001604052805f815250611876565b6001600160a01b0383163b156107de57604051630a85bd0160e11b81526001600160a01b0384169063150b7a029061151c90339088908790879060040161224a565b6020604051808303815f875af1925050508015611556575060408051601f3d908101601f1916820190925261155391810190612286565b60015b6115bd573d808015611583576040519150601f19603f3d011682016040523d82523d5f602084013e611588565b606091505b5080515f036115b557604051633250574960e11b81526001600160a01b038516600482015260240161077b565b805181602001fd5b6001600160e01b03198116630a85bd0160e11b146115f957604051633250574960e11b81526001600160a01b038516600482015260240161077b565b5050505050565b60606010805461069f906120cd565b60605f61161b8361188c565b60010190505f8167ffffffffffffffff81111561163a5761163a611ed0565b6040519080825280601f01601f191660200182016040528015611664576020820181803683370190505b5090508181016020015b5f19016f181899199a1a9b1b9c1cb0b131b232b360811b600a86061a8153600a850494508461166e57509392505050565b80806116b357506001600160a01b03821615155b15611774575f6116c2846112d0565b90506001600160a01b038316158015906116ee5750826001600160a01b0316816001600160a01b031614155b801561170157506116ff8184611217565b155b1561172a5760405163a9fbf51f60e01b81526001600160a01b038416600482015260240161077b565b81156117725783856001600160a01b0316826001600160a01b03167f8c5be1e5ebec7d5bd14f71427d1e84f3dd0314c0f7b2291e5b200ac8c7c3b92560405160405180910390a45b505b50505f90815260046020526040902080546001600160a01b0319166001600160a01b0392909216919091179055565b5f806117b0858585611963565b90506001600160a01b03811661180c5761180784600880545f838152600960205260408120829055600182018355919091527ff3f7a9fe364faab93b216da50a3214154f22a0a2b415b23a84c8169e8b636ee30155565b61182f565b846001600160a01b0316816001600160a01b03161461182f5761182f8185611a55565b6001600160a01b03851661184b5761184684611ae2565b61186e565b846001600160a01b0316816001600160a01b03161461186e5761186e8585611b89565b949350505050565b6118808383611bd7565b6108e15f8484846114da565b5f8072184f03e93ff9f4daa797ed6e38ed64bf6a1f0160401b83106118ca5772184f03e93ff9f4daa797ed6e38ed64bf6a1f0160401b830492506040015b6d04ee2d6d415b85acef810000000083106118f6576d04ee2d6d415b85acef8100000000830492506020015b662386f26fc10000831061191457662386f26fc10000830492506010015b6305f5e100831061192c576305f5e100830492506008015b612710831061194057612710830492506004015b60648310611952576064830492506002015b600a83106104db5760010192915050565b5f828152600260205260408120546001600160a01b039081169083161561198f5761198f818486611c38565b6001600160a01b038116156119c9576119aa5f855f8061169f565b6001600160a01b0381165f90815260036020526040902080545f190190555b6001600160a01b038516156119f7576001600160a01b0385165f908152600360205260409020805460010190555b5f8481526002602052604080822080546001600160a01b0319166001600160a01b0389811691821790925591518793918516917fddf252ad1be2c89b69c2b068fc378daa952ba7f163c4a11628f55a4df523b3ef91a4949350505050565b5f611a5f83610b63565b5f83815260076020526040902054909150808214611ab0576001600160a01b0384165f9081526006602090815260408083208584528252808320548484528184208190558352600790915290208190555b505f9182526007602090815260408084208490556001600160a01b039094168352600681528383209183525290812055565b6008545f90611af3906001906122a1565b5f8381526009602052604081205460088054939450909284908110611b1a57611b1a6120b9565b905f5260205f20015490508060088381548110611b3957611b396120b9565b5f918252602080832090910192909255828152600990915260408082208490558582528120556008805480611b7057611b706122b4565b600190038181905f5260205f20015f9055905550505050565b5f6001611b9584610b63565b611b9f91906122a1565b6001600160a01b039093165f908152600660209081526040808320868452825280832085905593825260079052919091209190915550565b6001600160a01b038216611c0057604051633250574960e11b81525f600482015260240161077b565b5f611c0c83835f611315565b90506001600160a01b038116156108e1576040516339e3563760e11b81525f600482015260240161077b565b611c43838383611c9c565b6108e1576001600160a01b038316611c7157604051637e27328960e01b81526004810182905260240161077b565b60405163177e802f60e01b81526001600160a01b03831660048201526024810182905260440161077b565b5f6001600160a01b0383161580159061186e5750826001600160a01b0316846001600160a01b03161480611cd55750611cd58484611217565b8061186e5750505f908152600460205260409020546001600160a01b03908116911614919050565b6001600160e01b03198116811461127e575f80fd5b5f60208284031215611d22575f80fd5b8135610fbf81611cfd565b80356001600160a01b0381168114611d43575f80fd5b919050565b5f60208284031215611d58575f80fd5b610fbf82611d2d565b634e487b7160e01b5f52602160045260245ffd5b60058110611d9157634e487b7160e01b5f52602160045260245ffd5b9052565b602080825282518282018190525f918401906040840190835b81811015611dd457611dc1838551611d75565b6020938401939290920191600101611dae565b509095945050505050565b5f81518084528060208401602086015e5f602082860101526020601f19601f83011685010191505092915050565b602081525f610fbf6020830184611ddf565b5f60208284031215611e2f575f80fd5b5035919050565b5f8060408385031215611e47575f80fd5b611e5083611d2d565b946020939093013593505050565b5f805f60608486031215611e70575f80fd5b611e7984611d2d565b9250611e8760208501611d2d565b929592945050506040919091013590565b5f8060408385031215611ea9575f80fd5b611eb283611d2d565b9150602083013560058110611ec5575f80fd5b809150509250929050565b634e487b7160e01b5f52604160045260245ffd5b5f8067ffffffffffffffff841115611efe57611efe611ed0565b50604051601f19601f85018116603f0116810181811067ffffffffffffffff82111715611f2d57611f2d611ed0565b604052838152905080828401851015611f44575f80fd5b838360208301375f60208583010152509392505050565b5f60208284031215611f6b575f80fd5b813567ffffffffffffffff811115611f81575f80fd5b8201601f81018413611f91575f80fd5b61186e84823560208401611ee4565b801515811461127e575f80fd5b5f8060408385031215611fbe575f80fd5b611fc783611d2d565b91506020830135611ec581611fa0565b5f805f8060808587031215611fea575f80fd5b611ff385611d2d565b935061200160208601611d2d565b925060408501359150606085013567ffffffffffffffff811115612023575f80fd5b8501601f81018713612033575f80fd5b61204287823560208401611ee4565b91505092959194509250565b602081016104db8284611d75565b5f806040838503121561206d575f80fd5b61207683611d2d565b915061208460208401611d2d565b90509250929050565b634e487b7160e01b5f52601160045260245ffd5b5f600182016120b2576120b261208d565b5060010190565b634e487b7160e01b5f52603260045260245ffd5b600181811c908216806120e157607f821691505b6020821081036120ff57634e487b7160e01b5f52602260045260245ffd5b50919050565b601f8211156108e157805f5260205f20601f840160051c8101602085101561212a5750805b601f840160051c820191505b818110156115f9575f8155600101612136565b815167ffffffffffffffff81111561216357612163611ed0565b6121778161217184546120cd565b84612105565b6020601f8211600181146121a9575f83156121925750848201515b5f19600385901b1c1916600184901b1784556115f9565b5f84815260208120601f198516915b828110156121d857878501518255602094850194600190920191016121b8565b50848210156121f557868401515f19600387901b60f8161c191681555b50505050600190811b01905550565b5f60208284031215612214575f80fd5b8151610fbf81611fa0565b5f81518060208401855e5f93019283525090919050565b5f61186e612244838661221f565b8461221f565b6001600160a01b03858116825284166020820152604081018390526080606082018190525f9061227c90830184611ddf565b9695505050505050565b5f60208284031215612296575f80fd5b8151610fbf81611cfd565b818103818111156104db576104db61208d565b634e487b7160e01b5f52603160045260245ffdfea264697066735822122061bf0c179fd75f83668be3b5a2773091130fffb0efd03f053cb8bef57de6fd5364736f6c634300081a0033","linkReferences":{}},"methodIdentifiers":{"approve(address,uint256)":"095ea7b3","balanceOf(address)":"70a08231","claimVerifiedIdentityBadge()":"a975b127","claimVerifiedIdentityBadgeWithAutoRegister(bytes32)":"d6476224","getApproved(uint256)":"081812fc","getBadgeType(uint256)":"e0e5fc4c","getBadges(address)":"03828e45","getTokenId(address,uint8)":"cb306eb7","grantMinter(address)":"261707fa","hasBadge(address,uint8)":"3af0c688","isApprovedForAll(address,address)":"e985e9c5","isMinter(address)":"aa271e1a","mintBadge(address,uint8)":"aa131a69","name()":"06fdde03","owner()":"8da5cb5b","ownerOf(uint256)":"6352211e","renounceOwnership()":"715018a6","revokeBadge(address,uint8)":"450f9d49","revokeMinter(address)":"cfbd4885","safeTransferFrom(address,address,uint256)":"42842e0e","safeTransferFrom(address,address,uint256,bytes)":"b88d4fde","scoreRegistry()":"3eb8104a","setApprovalForAll(address,bool)":"a22cb465","setBaseURI(string)":"55f804b3","setScoreRegistry(address)":"5eb6ee8e","supportsInterface(bytes4)":"01ffc9a7","symbol()":"95d89b41","tokenByIndex(uint256)":"4f6ccce7","tokenOfOwnerByIndex(address,uint256)":"2f745c59","tokenURI(uint256)":"c87b56dd","totalSupply()":"18160ddd","transferFrom(address,address,uint256)":"23b872dd","transferOwnership(address)":"f2fde38b"},"id":38}