{"abi":[{"type":"constructor","inputs":[{"name":"_treasury","type":"address","internalType":"address"}],"stateMutability":"nonpayable"},{"type":"function","name":"BASIS_POINTS","inputs":[],"outputs":[{"name":"","type":"uint256","internalType":"uint256"}],"stateMutability":"view"},{"type":"function","name":"DECAY_RATE_PER_MONTH","inputs":[],"outputs":[{"name":"","type":"uint256","internalType":"uint256"}],"stateMutability":"view"},{"type":"function","name":"DECAY_START_PERIOD","inputs":[],"outputs":[{"name":"","type":"uint256","internalType":"uint256"}],"stateMutability":"view"},{"type":"function","name":"MIN_STAKE","inputs":[],"outputs":[{"name":"","type":"uint256","internalType":"uint256"}],"stateMutability":"view"},{"type":"function","name":"ONE_MONTH","inputs":[],"outputs":[{"name":"","type":"uint256","internalType":"uint256"}],"stateMutability":"view"},{"type":"function","name":"calculateDecay","inputs":[{"name":"timestamp","type":"uint256","internalType":"uint256"}],"outputs":[{"name":"","type":"uint256","internalType":"uint256"}],"stateMutability":"view"},{"type":"function","name":"endorse","inputs":[{"name":"endorsee","type":"address","internalType":"address"},{"name":"endorsementType","type":"uint8","internalType":"enum IEndorsementVault.EndorsementType"}],"outputs":[],"stateMutability":"payable"},{"type":"function","name":"endorseWithAutoRegister","inputs":[{"name":"endorsee","type":"address","internalType":"address"},{"name":"endorsementType","type":"uint8","internalType":"enum IEndorsementVault.EndorsementType"},{"name":"senderScoreHash","type":"bytes32","internalType":"bytes32"}],"outputs":[],"stateMutability":"payable"},{"type":"function","name":"getEndorsement","inputs":[{"name":"endorsementId","type":"uint256","internalType":"uint256"}],"outputs":[{"name":"","type":"tuple","internalType":"struct IEndorsementVault.Endorsement","components":[{"name":"id","type":"uint256","internalType":"uint256"},{"name":"endorser","type":"address","internalType":"address"},{"name":"endorsee","type":"address","internalType":"address"},{"name":"endorsementType","type":"uint8","internalType":"enum IEndorsementVault.EndorsementType"},{"name":"stakeAmount","type":"uint256","internalType":"uint256"},{"name":"timestamp","type":"uint256","internalType":"uint256"},{"name":"active","type":"bool","internalType":"bool"}]}],"stateMutability":"view"},{"type":"function","name":"getEndorsementWeight","inputs":[{"name":"user","type":"address","internalType":"address"}],"outputs":[{"name":"","type":"uint256","internalType":"uint256"}],"stateMutability":"view"},{"type":"function","name":"getEndorsements","inputs":[{"name":"user","type":"address","internalType":"address"}],"outputs":[{"name":"","type":"tuple[]","internalType":"struct IEndorsementVault.Endorsement[]","components":[{"name":"id","type":"uint256","internalType":"uint256"},{"name":"endorser","type":"address","internalType":"address"},{"name":"endorsee","type":"address","internalType":"address"},{"name":"endorsementType","type":"uint8","internalType":"enum IEndorsementVault.EndorsementType"},{"name":"stakeAmount","type":"uint256","internalType":"uint256"},{"name":"timestamp","type":"uint256","internalType":"uint256"},{"name":"active","type":"bool","internalType":"bool"}]}],"stateMutability":"view"},{"type":"function","name":"getEndorsementsByEndorser","inputs":[{"name":"endorser","type":"address","internalType":"address"}],"outputs":[{"name":"","type":"tuple[]","internalType":"struct IEndorsementVault.Endorsement[]","components":[{"name":"id","type":"uint256","internalType":"uint256"},{"name":"endorser","type":"address","internalType":"address"},{"name":"endorsee","type":"address","internalType":"address"},{"name":"endorsementType","type":"uint8","internalType":"enum IEndorsementVault.EndorsementType"},{"name":"stakeAmount","type":"uint256","internalType":"uint256"},{"name":"timestamp","type":"uint256","internalType":"uint256"},{"name":"active","type":"bool","internalType":"bool"}]}],"stateMutability":"view"},{"type":"function","name":"minStake","inputs":[],"outputs":[{"name":"","type":"uint256","internalType":"uint256"}],"stateMutability":"pure"},{"type":"function","name":"owner","inputs":[],"outputs":[{"name":"","type":"address","internalType":"address"}],"stateMutability":"view"},{"type":"function","name":"renounceOwnership","inputs":[],"outputs":[],"stateMutability":"nonpayable"},{"type":"function","name":"scoreRegistry","inputs":[],"outputs":[{"name":"","type":"address","internalType":"contract IScoreRegistry"}],"stateMutability":"view"},{"type":"function","name":"setScoreRegistry","inputs":[{"name":"_scoreRegistry","type":"address","internalType":"address"}],"outputs":[],"stateMutability":"nonpayable"},{"type":"function","name":"setTreasury","inputs":[{"name":"newTreasury","type":"address","internalType":"address"}],"outputs":[],"stateMutability":"nonpayable"},{"type":"function","name":"slashEndorsement","inputs":[{"name":"endorsementId","type":"uint256","internalType":"uint256"}],"outputs":[],"stateMutability":"nonpayable"},{"type":"function","name":"transferOwnership","inputs":[{"name":"newOwner","type":"address","internalType":"address"}],"outputs":[],"stateMutability":"nonpayable"},{"type":"function","name":"treasury","inputs":[],"outputs":[{"name":"","type":"address","internalType":"address"}],"stateMutability":"view"},{"type":"function","name":"withdrawEndorsement","inputs":[{"name":"endorsementId","type":"uint256","internalType":"uint256"}],"outputs":[],"stateMutability":"nonpayable"},{"type":"event","name":"EndorsementCreated","inputs":[{"name":"id","type":"uint256","indexed":true,"internalType":"uint256"},{"name":"endorser","type":"address","indexed":true,"internalType":"address"},{"name":"endorsee","type":"address","indexed":true,"internalType":"address"},{"name":"endorsementType","type":"uint8","indexed":false,"internalType":"enum IEndorsementVault.EndorsementType"},{"name":"stakeAmount","type":"uint256","indexed":false,"internalType":"uint256"},{"name":"timestamp","type":"uint256","indexed":false,"internalType":"uint256"}],"anonymous":false},{"type":"event","name":"EndorsementSlashed","inputs":[{"name":"id","type":"uint256","indexed":true,"internalType":"uint256"},{"name":"slashedAmount","type":"uint256","indexed":false,"internalType":"uint256"}],"anonymous":false},{"type":"event","name":"EndorsementWithdrawn","inputs":[{"name":"id","type":"uint256","indexed":true,"internalType":"uint256"},{"name":"endorser","type":"address","indexed":true,"internalType":"address"},{"name":"returnedAmount","type":"uint256","indexed":false,"internalType":"uint256"}],"anonymous":false},{"type":"event","name":"OwnershipTransferred","inputs":[{"name":"previousOwner","type":"address","indexed":true,"internalType":"address"},{"name":"newOwner","type":"address","indexed":true,"internalType":"address"}],"anonymous":false},{"type":"error","name":"CannotEndorseSelf","inputs":[]},{"type":"error","name":"EndorsementNotActive","inputs":[]},{"type":"error","name":"EndorsementNotFound","inputs":[]},{"type":"error","name":"NotAdmin","inputs":[]},{"type":"error","name":"NotEndorser","inputs":[]},{"type":"error","name":"OwnableInvalidOwner","inputs":[{"name":"owner","type":"address","internalType":"address"}]},{"type":"error","name":"OwnableUnauthorizedAccount","inputs":[{"name":"account","type":"address","internalType":"address"}]},{"type":"error","name":"ReentrancyGuardReentrantCall","inputs":[]},{"type":"error","name":"StakeTooLow","inputs":[]}],"bytecode":{"object":"0x608060405234801561000f575f80fd5b506040516116df3803806116df83398101604081905261002e916100d5565b338061005357604051631e4fbdf760e01b81525f600482015260240160405180910390fd5b61005c81610086565b5060018055600680546001600160a01b0319166001600160a01b0392909216919091179055610102565b5f80546001600160a01b038381166001600160a01b0319831681178455604051919092169283917f8be0079c531659141344cd1fd0a4f28419497f9722a3daafe3b4186f6b6457e09190a35050565b5f602082840312156100e5575f80fd5b81516001600160a01b03811681146100fb575f80fd5b9392505050565b6115d08061010f5f395ff3fe608060405260043610610131575f3560e01c80638efb1040116100a8578063cb1c2b5c1161006d578063cb1c2b5c14610324578063e1f1c4a71461033e578063f0f4426014610353578063f2fde38b14610372578063f61e7e4314610391578063f93c1385146103b0575f80fd5b80638efb10401461029e578063a98ea62b146102ca578063b666ca9d146102df578063ba9be94b146102fe578063bb5781b714610311575f80fd5b80633eb8104a116100f95780633eb8104a146101e15780635eb6ee8e1461021857806361d027b314610239578063715018a61461025857806384cde6631461026c5780638da5cb5b14610282575f80fd5b806302119242146101355780630269f97e1461016757806320988cef14610186578063375b3c0a1461019c57806337b3664a146101b5575b5f80fd5b348015610140575f80fd5b5061015461014f3660046112ee565b6103cf565b6040519081526020015b60405180910390f35b348015610172575f80fd5b50610154610181366004611320565b610450565b348015610191575f80fd5b5061015462278d0081565b3480156101a7575f80fd5b50662386f26fc10000610154565b3480156101c0575f80fd5b506101d46101cf366004611320565b6104fe565b60405161015e91906113d3565b3480156101ec575f80fd5b50600754610200906001600160a01b031681565b6040516001600160a01b03909116815260200161015e565b348015610223575f80fd5b50610237610232366004611320565b610661565b005b348015610244575f80fd5b50600654610200906001600160a01b031681565b348015610263575f80fd5b5061023761068b565b348015610277575f80fd5b5061015462ed4e0081565b34801561028d575f80fd5b505f546001600160a01b0316610200565b3480156102a9575f80fd5b506102bd6102b83660046112ee565b61069e565b60405161015e9190611420565b3480156102d5575f80fd5b506101546103e881565b3480156102ea575f80fd5b506101d46102f9366004611320565b61074b565b61023761030c366004611442565b6108ae565b61023761031f366004611473565b610ac4565b34801561032f575f80fd5b50610154662386f26fc1000081565b348015610349575f80fd5b5061015461271081565b34801561035e575f80fd5b5061023761036d366004611320565b610dc1565b34801561037d575f80fd5b5061023761038c366004611320565b610deb565b34801561039c575f80fd5b506102376103ab3660046112ee565b610e2d565b3480156103bb575f80fd5b506102376103ca3660046112ee565b61109d565b5f806103db83426114c0565b905062ed4e008110156103f15750606492915050565b5f62278d0061040362ed4e00846114c0565b61040d91906114d3565b90505f61041c6103e8836114f2565b9050612710811061043157505f949350505050565b61043c6064826114d3565b6104479060646114c0565b95945050505050565b6001600160a01b0381165f90815260046020526040812081805b82548110156104f6575f60035f85848154811061048957610489611509565b5f91825260208083209091015483528201929092526040019020600581015490915060ff16156104ed575f6104c182600401546103cf565b905060648183600301546104d591906114f2565b6104df91906114d3565b6104e9908561151d565b9350505b5060010161046a565b509392505050565b6001600160a01b0381165f90815260056020526040812080546060929067ffffffffffffffff81111561053357610533611530565b60405190808252806020026020018201604052801561056c57816020015b6105596112b3565b8152602001906001900390816105515790505b5090505f5b82548110156104f65760035f84838154811061058f5761058f611509565b5f91825260208083209091015483528281019390935260409182019020815160e0810183528154815260018201546001600160a01b039081169482019490945260028083015494851693820193909352929091606084019160ff600160a01b909104169081111561060257610602611340565b600281111561061357610613611340565b8152600382015460208201526004820154604082015260059091015460ff161515606090910152825183908390811061064e5761064e611509565b6020908102919091010152600101610571565b61066961120e565b600780546001600160a01b0319166001600160a01b0392909216919091179055565b61069361120e565b61069c5f61123a565b565b6106a66112b3565b5f82815260036020908152604091829020825160e0810184528154815260018201546001600160a01b0390811693820193909352600280830154938416948201949094529290916060840191600160a01b90910460ff169081111561070d5761070d611340565b600281111561071e5761071e611340565b8152600382015460208201526004820154604082015260059091015460ff16151560609091015292915050565b6001600160a01b0381165f90815260046020526040812080546060929067ffffffffffffffff81111561078057610780611530565b6040519080825280602002602001820160405280156107b957816020015b6107a66112b3565b81526020019060019003908161079e5790505b5090505f5b82548110156104f65760035f8483815481106107dc576107dc611509565b5f91825260208083209091015483528281019390935260409182019020815160e0810183528154815260018201546001600160a01b039081169482019490945260028083015494851693820193909352929091606084019160ff600160a01b909104169081111561084f5761084f611340565b600281111561086057610860611340565b8152600382015460208201526004820154604082015260059091015460ff161515606090910152825183908390811061089b5761089b611509565b60209081029190910101526001016107be565b6108b6611289565b662386f26fc100003410156108de57604051631cc3b37b60e01b815260040160405180910390fd5b336001600160a01b038316036109075760405163023537e560e21b815260040160405180910390fd5b600280545f918261091783611544565b9190505590505f6040518060e00160405280838152602001336001600160a01b03168152602001856001600160a01b0316815260200184600281111561095f5761095f611340565b81523460208083019190915242604080840191909152600160609384018190525f87815260038452829020855181559285015190830180546001600160a01b03199081166001600160a01b03938416179091559185015160028085018054948516929093169182178355948601519596508695939491926001600160a81b0319161790600160a01b9084908111156109f9576109f9611340565b02179055506080820151600382015560a082015160048083019190915560c0909201516005918201805460ff19169115159190911790556001600160a01b0386165f81815260209384526040808220805460018181018355918452868420018890553380845294865281832080549182018155835294909120909301859055915184907fd40842e083b63f18174467b24e3377861c393f529f8dbb6f0117b8d6fa1aada390610aad9088903490429061155c565b60405180910390a45050610ac060018055565b5050565b610acc611289565b662386f26fc10000341015610af457604051631cc3b37b60e01b815260040160405180910390fd5b336001600160a01b03841603610b1d5760405163023537e560e21b815260040160405180910390fd5b6007546001600160a01b031615801590610b9e575060075460405163c3c5a54760e01b81523360048201526001600160a01b039091169063c3c5a54790602401602060405180830381865afa158015610b78573d5f803e3d5ffd5b505050506040513d601f19601f82011682018060405250810190610b9c919061157b565b155b15610c035760075460405163052a10f360e11b8152336004820152602481018390526001600160a01b0390911690630a5421e6906044015f604051808303815f87803b158015610bec575f80fd5b505af1158015610bfe573d5f803e3d5ffd5b505050505b600280545f9182610c1383611544565b9190505590505f6040518060e00160405280838152602001336001600160a01b03168152602001866001600160a01b03168152602001856002811115610c5b57610c5b611340565b81523460208083019190915242604080840191909152600160609384018190525f87815260038452829020855181559285015190830180546001600160a01b03199081166001600160a01b03938416179091559185015160028085018054948516929093169182178355948601519596508695939491926001600160a81b0319161790600160a01b908490811115610cf557610cf5611340565b02179055506080820151600382015560a082015160048083019190915560c0909201516005918201805460ff19169115159190911790556001600160a01b0387165f81815260209384526040808220805460018181018355918452868420018890553380845294865281832080549182018155835294909120909301859055915184907fd40842e083b63f18174467b24e3377861c393f529f8dbb6f0117b8d6fa1aada390610da99089903490429061155c565b60405180910390a45050610dbc60018055565b505050565b610dc961120e565b600680546001600160a01b0319166001600160a01b0392909216919091179055565b610df361120e565b6001600160a01b038116610e2157604051631e4fbdf760e01b81525f60048201526024015b60405180910390fd5b610e2a8161123a565b50565b610e35611289565b5f81815260036020526040902060018101546001600160a01b0316610e6d5760405163d84736db60e01b815260040160405180910390fd5b60018101546001600160a01b03163314610e9a5760405163018c397960e21b815260040160405180910390fd5b600581015460ff16610ebf57604051630d4f0bbb60e11b815260040160405180910390fd5b60058101805460ff1916905560048101545f90610edb906103cf565b90505f6064828460030154610ef091906114f2565b610efa91906114d3565b90505f818460030154610f0d91906114c0565b90508115610f9e576040515f90339084908381818185875af1925050503d805f8114610f54576040519150601f19603f3d011682016040523d82523d5f602084013e610f59565b606091505b5050905080610f9c5760405162461bcd60e51b815260206004820152600f60248201526e151c985b9cd9995c8819985a5b1959608a1b6044820152606401610e18565b505b5f81118015610fb757506006546001600160a01b031615155b15611059576006546040515f916001600160a01b03169083908381818185875af1925050503d805f8114611006576040519150601f19603f3d011682016040523d82523d5f602084013e61100b565b606091505b50509050806110575760405162461bcd60e51b8152602060048201526018602482015277151c99585cdd5c9e481d1c985b9cd9995c8819985a5b195960421b6044820152606401610e18565b505b604051828152339086907f42d69cd6485b2a50cbe1c4e696d433e853b4b67f980671285ef40bc32defc3c69060200160405180910390a350505050610e2a60018055565b6110a561120e565b6110ad611289565b5f81815260036020526040902060018101546001600160a01b03166110e55760405163d84736db60e01b815260040160405180910390fd5b600581015460ff1661110a57604051630d4f0bbb60e11b815260040160405180910390fd5b60058101805460ff1916905560038101546006546001600160a01b0316156111c9576006546040515f916001600160a01b03169083908381818185875af1925050503d805f8114611176576040519150601f19603f3d011682016040523d82523d5f602084013e61117b565b606091505b50509050806111c75760405162461bcd60e51b8152602060048201526018602482015277151c99585cdd5c9e481d1c985b9cd9995c8819985a5b195960421b6044820152606401610e18565b505b827fb7bad8e300f443a924e8cd55f562f649b4e13b966852c8c1b98c54aec389570b826040516111fb91815260200190565b60405180910390a25050610e2a60018055565b5f546001600160a01b0316331461069c5760405163118cdaa760e01b8152336004820152602401610e18565b5f80546001600160a01b038381166001600160a01b0319831681178455604051919092169283917f8be0079c531659141344cd1fd0a4f28419497f9722a3daafe3b4186f6b6457e09190a35050565b6002600154036112ac57604051633ee5aeb560e01b815260040160405180910390fd5b6002600155565b6040805160e0810182525f8082526020820181905291810182905290606082019081526020015f81526020015f81526020015f151581525090565b5f602082840312156112fe575f80fd5b5035919050565b80356001600160a01b038116811461131b575f80fd5b919050565b5f60208284031215611330575f80fd5b61133982611305565b9392505050565b634e487b7160e01b5f52602160045260245ffd5b6003811061137057634e487b7160e01b5f52602160045260245ffd5b9052565b8051825260018060a01b03602082015116602083015260018060a01b03604082015116604083015260608101516113ae6060840182611354565b506080810151608083015260a081015160a083015260c0810151151560c08301525050565b602080825282518282018190525f918401906040840190835b81811015611415576113ff838551611374565b6020939093019260e092909201916001016113ec565b509095945050505050565b60e0810161142e8284611374565b92915050565b80356003811061131b575f80fd5b5f8060408385031215611453575f80fd5b61145c83611305565b915061146a60208401611434565b90509250929050565b5f805f60608486031215611485575f80fd5b61148e84611305565b925061149c60208501611434565b9150604084013590509250925092565b634e487b7160e01b5f52601160045260245ffd5b8181038181111561142e5761142e6114ac565b5f826114ed57634e487b7160e01b5f52601260045260245ffd5b500490565b808202811582820484141761142e5761142e6114ac565b634e487b7160e01b5f52603260045260245ffd5b8082018082111561142e5761142e6114ac565b634e487b7160e01b5f52604160045260245ffd5b5f60018201611555576115556114ac565b5060010190565b6060810161156a8286611354565b602082019390935260400152919050565b5f6020828403121561158b575f80fd5b81518015158114611339575f80fdfea264697066735822122054f15a93ae914b619ff8da6600298ea68f53fe4c3cfa9f69a1eb5a9b9effbf9f64736f6c634300081a0033","linkReferences":{}},"methodIdentifiers":{"BASIS_POINTS()":"e1f1c4a7","DECAY_RATE_PER_MONTH()":"a98ea62b","DECAY_START_PERIOD()":"84cde663","MIN_STAKE()":"cb1c2b5c","ONE_MONTH()":"20988cef","calculateDecay(uint256)":"02119242","endorse(address,uint8)":"ba9be94b","endorseWithAutoRegister(address,uint8,bytes32)":"bb5781b7","getEndorsement(uint256)":"8efb1040","getEndorsementWeight(address)":"0269f97e","getEndorsements(address)":"b666ca9d","getEndorsementsByEndorser(address)":"37b3664a","minStake()":"375b3c0a","owner()":"8da5cb5b","renounceOwnership()":"715018a6","scoreRegistry()":"3eb8104a","setScoreRegistry(address)":"5eb6ee8e","setTreasury(address)":"f0f44260","slashEndorsement(uint256)":"f93c1385","transferOwnership(address)":"f2fde38b","treasury()":"61d027b3","withdrawEndorsement(uint256)":"f61e7e43"},"id":39}