{"abi":[{"type":"constructor","inputs":[{"name":"_name","type":"string","internalType":"string"},{"name":"_symbol","type":"string","internalType":"string"},{"name":"_maxSupply","type":"uint256","internalType":"uint256"},{"name":"_maxPerWallet","type":"uint256","internalType":"uint256"},{"name":"baseURI","type":"string","internalType":"string"}],"stateMutability":"nonpayable"},{"type":"function","name":"approve","inputs":[{"name":"to","type":"address","internalType":"address"},{"name":"tokenId","type":"uint256","internalType":"uint256"}],"outputs":[],"stateMutability":"nonpayable"},{"type":"function","name":"balanceOf","inputs":[{"name":"owner","type":"address","internalType":"address"}],"outputs":[{"name":"","type":"uint256","internalType":"uint256"}],"stateMutability":"view"},{"type":"function","name":"currentTokenId","inputs":[],"outputs":[{"name":"","type":"uint256","internalType":"uint256"}],"stateMutability":"view"},{"type":"function","name":"getApproved","inputs":[{"name":"tokenId","type":"uint256","internalType":"uint256"}],"outputs":[{"name":"","type":"address","internalType":"address"}],"stateMutability":"view"},{"type":"function","name":"getMintedByWallet","inputs":[{"name":"wallet","type":"address","internalType":"address"}],"outputs":[{"name":"","type":"uint256","internalType":"uint256"}],"stateMutability":"view"},{"type":"function","name":"isApprovedForAll","inputs":[{"name":"owner","type":"address","internalType":"address"},{"name":"operator","type":"address","internalType":"address"}],"outputs":[{"name":"","type":"bool","internalType":"bool"}],"stateMutability":"view"},{"type":"function","name":"maxPerWallet","inputs":[],"outputs":[{"name":"","type":"uint256","internalType":"uint256"}],"stateMutability":"view"},{"type":"function","name":"maxSupply","inputs":[],"outputs":[{"name":"","type":"uint256","internalType":"uint256"}],"stateMutability":"view"},{"type":"function","name":"mint","inputs":[],"outputs":[],"stateMutability":"nonpayable"},{"type":"function","name":"mintBatch","inputs":[{"name":"amount","type":"uint256","internalType":"uint256"}],"outputs":[],"stateMutability":"nonpayable"},{"type":"function","name":"mintTo","inputs":[{"name":"to","type":"address","internalType":"address"}],"outputs":[],"stateMutability":"nonpayable"},{"type":"function","name":"mintedByWallet","inputs":[{"name":"","type":"address","internalType":"address"}],"outputs":[{"name":"","type":"uint256","internalType":"uint256"}],"stateMutability":"view"},{"type":"function","name":"name","inputs":[],"outputs":[{"name":"","type":"string","internalType":"string"}],"stateMutability":"view"},{"type":"function","name":"owner","inputs":[],"outputs":[{"name":"","type":"address","internalType":"address"}],"stateMutability":"view"},{"type":"function","name":"ownerOf","inputs":[{"name":"tokenId","type":"uint256","internalType":"uint256"}],"outputs":[{"name":"","type":"address","internalType":"address"}],"stateMutability":"view"},{"type":"function","name":"remainingSupply","inputs":[],"outputs":[{"name":"","type":"uint256","internalType":"uint256"}],"stateMutability":"view"},{"type":"function","name":"renounceOwnership","inputs":[],"outputs":[],"stateMutability":"nonpayable"},{"type":"function","name":"safeTransferFrom","inputs":[{"name":"from","type":"address","internalType":"address"},{"name":"to","type":"address","internalType":"address"},{"name":"tokenId","type":"uint256","internalType":"uint256"}],"outputs":[],"stateMutability":"nonpayable"},{"type":"function","name":"safeTransferFrom","inputs":[{"name":"from","type":"address","internalType":"address"},{"name":"to","type":"address","internalType":"address"},{"name":"tokenId","type":"uint256","internalType":"uint256"},{"name":"data","type":"bytes","internalType":"bytes"}],"outputs":[],"stateMutability":"nonpayable"},{"type":"function","name":"setApprovalForAll","inputs":[{"name":"operator","type":"address","internalType":"address"},{"name":"approved","type":"bool","internalType":"bool"}],"outputs":[],"stateMutability":"nonpayable"},{"type":"function","name":"setBaseURI","inputs":[{"name":"baseURI","type":"string","internalType":"string"}],"outputs":[],"stateMutability":"nonpayable"},{"type":"function","name":"setMaxPerWallet","inputs":[{"name":"_maxPerWallet","type":"uint256","internalType":"uint256"}],"outputs":[],"stateMutability":"nonpayable"},{"type":"function","name":"supportsInterface","inputs":[{"name":"interfaceId","type":"bytes4","internalType":"bytes4"}],"outputs":[{"name":"","type":"bool","internalType":"bool"}],"stateMutability":"view"},{"type":"function","name":"symbol","inputs":[],"outputs":[{"name":"","type":"string","internalType":"string"}],"stateMutability":"view"},{"type":"function","name":"tokenByIndex","inputs":[{"name":"index","type":"uint256","internalType":"uint256"}],"outputs":[{"name":"","type":"uint256","internalType":"uint256"}],"stateMutability":"view"},{"type":"function","name":"tokenOfOwnerByIndex","inputs":[{"name":"owner","type":"address","internalType":"address"},{"name":"index","type":"uint256","internalType":"uint256"}],"outputs":[{"name":"","type":"uint256","internalType":"uint256"}],"stateMutability":"view"},{"type":"function","name":"tokenURI","inputs":[{"name":"tokenId","type":"uint256","internalType":"uint256"}],"outputs":[{"name":"","type":"string","internalType":"string"}],"stateMutability":"view"},{"type":"function","name":"totalSupply","inputs":[],"outputs":[{"name":"","type":"uint256","internalType":"uint256"}],"stateMutability":"view"},{"type":"function","name":"transferFrom","inputs":[{"name":"from","type":"address","internalType":"address"},{"name":"to","type":"address","internalType":"address"},{"name":"tokenId","type":"uint256","internalType":"uint256"}],"outputs":[],"stateMutability":"nonpayable"},{"type":"function","name":"transferOwnership","inputs":[{"name":"newOwner","type":"address","internalType":"address"}],"outputs":[],"stateMutability":"nonpayable"},{"type":"event","name":"Approval","inputs":[{"name":"owner","type":"address","indexed":true,"internalType":"address"},{"name":"approved","type":"address","indexed":true,"internalType":"address"},{"name":"tokenId","type":"uint256","indexed":true,"internalType":"uint256"}],"anonymous":false},{"type":"event","name":"ApprovalForAll","inputs":[{"name":"owner","type":"address","indexed":true,"internalType":"address"},{"name":"operator","type":"address","indexed":true,"internalType":"address"},{"name":"approved","type":"bool","indexed":false,"internalType":"bool"}],"anonymous":false},{"type":"event","name":"BaseURIUpdated","inputs":[{"name":"oldURI","type":"string","indexed":false,"internalType":"string"},{"name":"newURI","type":"string","indexed":false,"internalType":"string"}],"anonymous":false},{"type":"event","name":"MaxPerWalletUpdated","inputs":[{"name":"oldMax","type":"uint256","indexed":false,"internalType":"uint256"},{"name":"newMax","type":"uint256","indexed":false,"internalType":"uint256"}],"anonymous":false},{"type":"event","name":"NFTMinted","inputs":[{"name":"to","type":"address","indexed":true,"internalType":"address"},{"name":"tokenId","type":"uint256","indexed":true,"internalType":"uint256"}],"anonymous":false},{"type":"event","name":"OwnershipTransferred","inputs":[{"name":"previousOwner","type":"address","indexed":true,"internalType":"address"},{"name":"newOwner","type":"address","indexed":true,"internalType":"address"}],"anonymous":false},{"type":"event","name":"Transfer","inputs":[{"name":"from","type":"address","indexed":true,"internalType":"address"},{"name":"to","type":"address","indexed":true,"internalType":"address"},{"name":"tokenId","type":"uint256","indexed":true,"internalType":"uint256"}],"anonymous":false},{"type":"error","name":"ERC721EnumerableForbiddenBatchMint","inputs":[]},{"type":"error","name":"ERC721IncorrectOwner","inputs":[{"name":"sender","type":"address","internalType":"address"},{"name":"tokenId","type":"uint256","internalType":"uint256"},{"name":"owner","type":"address","internalType":"address"}]},{"type":"error","name":"ERC721InsufficientApproval","inputs":[{"name":"operator","type":"address","internalType":"address"},{"name":"tokenId","type":"uint256","internalType":"uint256"}]},{"type":"error","name":"ERC721InvalidApprover","inputs":[{"name":"approver","type":"address","internalType":"address"}]},{"type":"error","name":"ERC721InvalidOperator","inputs":[{"name":"operator","type":"address","internalType":"address"}]},{"type":"error","name":"ERC721InvalidOwner","inputs":[{"name":"owner","type":"address","internalType":"address"}]},{"type":"error","name":"ERC721InvalidReceiver","inputs":[{"name":"receiver","type":"address","internalType":"address"}]},{"type":"error","name":"ERC721InvalidSender","inputs":[{"name":"sender","type":"address","internalType":"address"}]},{"type":"error","name":"ERC721NonexistentToken","inputs":[{"name":"tokenId","type":"uint256","internalType":"uint256"}]},{"type":"error","name":"ERC721OutOfBoundsIndex","inputs":[{"name":"owner","type":"address","internalType":"address"},{"name":"index","type":"uint256","internalType":"uint256"}]},{"type":"error","name":"ExceedsMaxPerWallet","inputs":[]},{"type":"error","name":"MaxSupplyReached","inputs":[]},{"type":"error","name":"OwnableInvalidOwner","inputs":[{"name":"owner","type":"address","internalType":"address"}]},{"type":"error","name":"OwnableUnauthorizedAccount","inputs":[{"name":"account","type":"address","internalType":"address"}]},{"type":"error","name":"ZeroMintAmount","inputs":[]}],"bytecode":{"object":"0x608060405234801561000f575f80fd5b50604051611d03380380611d0383398101604081905261002e91610192565b3385855f61003c83826102b9565b50600161004982826102b9565b5050506001600160a01b03811661007957604051631e4fbdf760e01b81525f600482015260240160405180910390fd5b610082816100a4565b50600c839055600d829055600e61009982826102b9565b505050505050610373565b600a80546001600160a01b038381166001600160a01b0319831681179093556040519116919082907f8be0079c531659141344cd1fd0a4f28419497f9722a3daafe3b4186f6b6457e0905f90a35050565b634e487b7160e01b5f52604160045260245ffd5b5f82601f830112610118575f80fd5b81516001600160401b03811115610131576101316100f5565b604051601f8201601f19908116603f011681016001600160401b038111828210171561015f5761015f6100f5565b604052818152838201602001851015610176575f80fd5b8160208501602083015e5f918101602001919091529392505050565b5f805f805f60a086880312156101a6575f80fd5b85516001600160401b038111156101bb575f80fd5b6101c788828901610109565b602088015190965090506001600160401b038111156101e4575f80fd5b6101f088828901610109565b6040880151606089015160808a0151929750909550935090506001600160401b0381111561021c575f80fd5b61022888828901610109565b9150509295509295909350565b600181811c9082168061024957607f821691505b60208210810361026757634e487b7160e01b5f52602260045260245ffd5b50919050565b601f8211156102b457805f5260205f20601f840160051c810160208510156102925750805b601f840160051c820191505b818110156102b1575f815560010161029e565b50505b505050565b81516001600160401b038111156102d2576102d26100f5565b6102e6816102e08454610235565b8461026d565b6020601f821160018114610318575f83156103015750848201515b5f19600385901b1c1916600184901b1784556102b1565b5f84815260208120601f198516915b828110156103475787850151825560209485019460019092019101610327565b508482101561036457868401515f19600387901b60f8161c191681555b50505050600190811b01905550565b611983806103805f395ff3fe608060405234801561000f575f80fd5b50600436106101d0575f3560e01c806355f804b3116100fe578063a22cb4651161009e578063da0239a61161006e578063da0239a6146103d1578063e268e4d3146103d9578063e985e9c5146103ec578063f2fde38b146103ff575f80fd5b8063a22cb4651461038f578063b88d4fde146103a2578063c87b56dd146103b5578063d5abeb01146103c8575f80fd5b8063715018a6116100d9578063715018a61461035b578063755edd17146103635780638da5cb5b1461037657806395d89b4114610387575f80fd5b806355f804b3146103225780636352211e1461033557806370a0823114610348575f80fd5b806318160ddd116101745780632f745c59116101445780632f745c59146102e057806342842e0e146102f3578063453c2310146103065780634f6ccce71461030f575f80fd5b806318160ddd1461028a5780631b1cac041461029257806320e409b4146102ba57806323b872dd146102cd575f80fd5b8063081812fc116101af578063081812fc14610223578063095ea7b31461024e5780630d758111146102635780631249c58b14610282575f80fd5b80629a9b7b146101d457806301ffc9a7146101eb57806306fdde031461020e575b5f80fd5b600b545b6040519081526020015b60405180910390f35b6101fe6101f9366004611447565b610412565b60405190151581526020016101e2565b610216610422565b6040516101e29190611490565b6102366102313660046114a2565b6104b1565b6040516001600160a01b0390911681526020016101e2565b61026161025c3660046114d4565b6104d8565b005b6101d86102713660046114fc565b600f6020525f908152604090205481565b6102616104e7565b6008546101d8565b6101d86102a03660046114fc565b6001600160a01b03165f908152600f602052604090205490565b6102616102c83660046114a2565b6104f2565b6102616102db366004611515565b61052d565b6101d86102ee3660046114d4565b6105bb565b610261610301366004611515565b61061e565b6101d8600d5481565b6101d861031d3660046114a2565b61063d565b6102616103303660046115da565b610692565b6102366103433660046114a2565b610773565b6101d86103563660046114fc565b61077d565b6102616107c2565b6102616103713660046114fc565b6107d3565b600a546001600160a01b0316610236565b6102166107df565b61026161039d36600461161f565b6107ee565b6102616103b0366004611658565b6107f9565b6102166103c33660046114a2565b610810565b6101d8600c5481565b6101d8610875565b6102616103e73660046114a2565b61088b565b6101fe6103fa3660046116cf565b6108d1565b61026161040d3660046114fc565b6108fe565b5f61041c82610938565b92915050565b60605f805461043090611700565b80601f016020809104026020016040519081016040528092919081815260200182805461045c90611700565b80156104a75780601f1061047e576101008083540402835291602001916104a7565b820191905f5260205f20905b81548152906001019060200180831161048a57829003601f168201915b5050505050905090565b5f6104bb8261095c565b505f828152600460205260409020546001600160a01b031661041c565b6104e3828233610994565b5050565b6104f0336109a1565b565b805f0361051257604051630856e64360e21b815260040160405180910390fd5b5f5b818110156104e357610525336109a1565b600101610514565b6001600160a01b03821661055b57604051633250574960e11b81525f60048201526024015b60405180910390fd5b5f610567838333610a7f565b9050836001600160a01b0316816001600160a01b0316146105b5576040516364283d7b60e01b81526001600160a01b0380861660048301526024820184905282166044820152606401610552565b50505050565b5f6105c58361077d565b82106105f65760405163295f44f760e21b81526001600160a01b038416600482015260248101839052604401610552565b506001600160a01b03919091165f908152600660209081526040808320938352929052205490565b61063883838360405180602001604052805f8152506107f9565b505050565b5f61064760085490565b821061066f5760405163295f44f760e21b81525f600482015260248101839052604401610552565b6008828154811061068257610682611738565b905f5260205f2001549050919050565b61069a610a93565b5f600e80546106a890611700565b80601f01602080910402602001604051908101604052809291908181526020018280546106d490611700565b801561071f5780601f106106f65761010080835404028352916020019161071f565b820191905f5260205f20905b81548152906001019060200180831161070257829003601f168201915b5050505050905081600e90816107359190611790565b507f309b29ded109b9e28fb9885757b3e0096eb75c51d23aa4635d68bcd569f6adc1818360405161076792919061184b565b60405180910390a15050565b5f61041c8261095c565b5f6001600160a01b0382166107a7576040516322718ad960e21b81525f6004820152602401610552565b506001600160a01b03165f9081526003602052604090205490565b6107ca610a93565b6104f05f610ac0565b6107dc816109a1565b50565b60606001805461043090611700565b6104e3338383610b11565b61080484848461052d565b6105b584848484610baf565b606061081b8261095c565b505f610825610cd5565b90505f8151116108435760405180602001604052805f81525061086e565b8061084d84610ce4565b60405160200161085e92919061188f565b6040516020818303038152906040525b9392505050565b5f600b54600c5461088691906118b7565b905090565b610893610a93565b600d80549082905560408051828152602081018490527f3fca42c6c8b5fed56d74db2d1bdb8779af1f129431f3517018ca13f6904b06379101610767565b6001600160a01b039182165f90815260056020908152604080832093909416825291909152205460ff1690565b610906610a93565b6001600160a01b03811661092f57604051631e4fbdf760e01b81525f6004820152602401610552565b6107dc81610ac0565b5f6001600160e01b0319821663780e9d6360e01b148061041c575061041c82610d74565b5f818152600260205260408120546001600160a01b03168061041c57604051637e27328960e01b815260048101849052602401610552565b6106388383836001610dc3565b600c54600b54106109c55760405163d05cb60960e01b815260040160405180910390fd5b600d546001600160a01b0382165f908152600f6020526040902054106109fe5760405163c0e54d7360e01b815260040160405180910390fd5b600b80549081905f610a0f836118ca565b90915550506001600160a01b0382165f908152600f60205260408120805491610a37836118ca565b9190505550610a468282610ec7565b60405181906001600160a01b038416907f4cc0a9c4a99ddc700de1af2c9f916a7cbfdb71f14801ccff94061ad1ef8a8040905f90a35050565b5f610a8b848484610ee0565b949350505050565b600a546001600160a01b031633146104f05760405163118cdaa760e01b8152336004820152602401610552565b600a80546001600160a01b038381166001600160a01b0319831681179093556040519116919082907f8be0079c531659141344cd1fd0a4f28419497f9722a3daafe3b4186f6b6457e0905f90a35050565b6001600160a01b038216610b4357604051630b61174360e31b81526001600160a01b0383166004820152602401610552565b6001600160a01b038381165f81815260056020908152604080832094871680845294825291829020805460ff191686151590811790915591519182527f17307eab39ab6107e8899845ad3d59bd9653f200f220920489ca2b5937696c31910160405180910390a3505050565b6001600160a01b0383163b156105b557604051630a85bd0160e11b81526001600160a01b0384169063150b7a0290610bf19033908890879087906004016118e2565b6020604051808303815f875af1925050508015610c2b575060408051601f3d908101601f19168201909252610c289181019061191e565b60015b610c92573d808015610c58576040519150601f19603f3d011682016040523d82523d5f602084013e610c5d565b606091505b5080515f03610c8a57604051633250574960e11b81526001600160a01b0385166004820152602401610552565b805181602001fd5b6001600160e01b03198116630a85bd0160e11b14610cce57604051633250574960e11b81526001600160a01b0385166004820152602401610552565b5050505050565b6060600e805461043090611700565b60605f610cf083610fab565b60010190505f8167ffffffffffffffff811115610d0f57610d0f61154f565b6040519080825280601f01601f191660200182016040528015610d39576020820181803683370190505b5090508181016020015b5f19016f181899199a1a9b1b9c1cb0b131b232b360811b600a86061a8153600a8504945084610d4357509392505050565b5f6001600160e01b031982166380ac58cd60e01b1480610da457506001600160e01b03198216635b5e139f60e01b145b8061041c57506301ffc9a760e01b6001600160e01b031983161461041c565b8080610dd757506001600160a01b03821615155b15610e98575f610de68461095c565b90506001600160a01b03831615801590610e125750826001600160a01b0316816001600160a01b031614155b8015610e255750610e2381846108d1565b155b15610e4e5760405163a9fbf51f60e01b81526001600160a01b0384166004820152602401610552565b8115610e965783856001600160a01b0316826001600160a01b03167f8c5be1e5ebec7d5bd14f71427d1e84f3dd0314c0f7b2291e5b200ac8c7c3b92560405160405180910390a45b505b50505f90815260046020526040902080546001600160a01b0319166001600160a01b0392909216919091179055565b6104e3828260405180602001604052805f815250611082565b5f80610eed858585611098565b90506001600160a01b038116610f4957610f4484600880545f838152600960205260408120829055600182018355919091527ff3f7a9fe364faab93b216da50a3214154f22a0a2b415b23a84c8169e8b636ee30155565b610f6c565b846001600160a01b0316816001600160a01b031614610f6c57610f6c818561118a565b6001600160a01b038516610f8857610f8384611217565b610a8b565b846001600160a01b0316816001600160a01b031614610a8b57610a8b85856112be565b5f8072184f03e93ff9f4daa797ed6e38ed64bf6a1f0160401b8310610fe95772184f03e93ff9f4daa797ed6e38ed64bf6a1f0160401b830492506040015b6d04ee2d6d415b85acef81000000008310611015576d04ee2d6d415b85acef8100000000830492506020015b662386f26fc10000831061103357662386f26fc10000830492506010015b6305f5e100831061104b576305f5e100830492506008015b612710831061105f57612710830492506004015b60648310611071576064830492506002015b600a831061041c5760010192915050565b61108c838361130c565b6106385f848484610baf565b5f828152600260205260408120546001600160a01b03908116908316156110c4576110c481848661136d565b6001600160a01b038116156110fe576110df5f855f80610dc3565b6001600160a01b0381165f90815260036020526040902080545f190190555b6001600160a01b0385161561112c576001600160a01b0385165f908152600360205260409020805460010190555b5f8481526002602052604080822080546001600160a01b0319166001600160a01b0389811691821790925591518793918516917fddf252ad1be2c89b69c2b068fc378daa952ba7f163c4a11628f55a4df523b3ef91a4949350505050565b5f6111948361077d565b5f838152600760205260409020549091508082146111e5576001600160a01b0384165f9081526006602090815260408083208584528252808320548484528184208190558352600790915290208190555b505f9182526007602090815260408084208490556001600160a01b039094168352600681528383209183525290812055565b6008545f90611228906001906118b7565b5f838152600960205260408120546008805493945090928490811061124f5761124f611738565b905f5260205f2001549050806008838154811061126e5761126e611738565b5f9182526020808320909101929092558281526009909152604080822084905585825281205560088054806112a5576112a5611939565b600190038181905f5260205f20015f9055905550505050565b5f60016112ca8461077d565b6112d491906118b7565b6001600160a01b039093165f908152600660209081526040808320868452825280832085905593825260079052919091209190915550565b6001600160a01b03821661133557604051633250574960e11b81525f6004820152602401610552565b5f61134183835f610a7f565b90506001600160a01b03811615610638576040516339e3563760e11b81525f6004820152602401610552565b6113788383836113d1565b610638576001600160a01b0383166113a657604051637e27328960e01b815260048101829052602401610552565b60405163177e802f60e01b81526001600160a01b038316600482015260248101829052604401610552565b5f6001600160a01b03831615801590610a8b5750826001600160a01b0316846001600160a01b0316148061140a575061140a84846108d1565b80610a8b5750505f908152600460205260409020546001600160a01b03908116911614919050565b6001600160e01b0319811681146107dc575f80fd5b5f60208284031215611457575f80fd5b813561086e81611432565b5f81518084528060208401602086015e5f602082860101526020601f19601f83011685010191505092915050565b602081525f61086e6020830184611462565b5f602082840312156114b2575f80fd5b5035919050565b80356001600160a01b03811681146114cf575f80fd5b919050565b5f80604083850312156114e5575f80fd5b6114ee836114b9565b946020939093013593505050565b5f6020828403121561150c575f80fd5b61086e826114b9565b5f805f60608486031215611527575f80fd5b611530846114b9565b925061153e602085016114b9565b929592945050506040919091013590565b634e487b7160e01b5f52604160045260245ffd5b5f8067ffffffffffffffff84111561157d5761157d61154f565b50604051601f19601f85018116603f0116810181811067ffffffffffffffff821117156115ac576115ac61154f565b6040528381529050808284018510156115c3575f80fd5b838360208301375f60208583010152509392505050565b5f602082840312156115ea575f80fd5b813567ffffffffffffffff811115611600575f80fd5b8201601f81018413611610575f80fd5b610a8b84823560208401611563565b5f8060408385031215611630575f80fd5b611639836114b9565b91506020830135801515811461164d575f80fd5b809150509250929050565b5f805f806080858703121561166b575f80fd5b611674856114b9565b9350611682602086016114b9565b925060408501359150606085013567ffffffffffffffff8111156116a4575f80fd5b8501601f810187136116b4575f80fd5b6116c387823560208401611563565b91505092959194509250565b5f80604083850312156116e0575f80fd5b6116e9836114b9565b91506116f7602084016114b9565b90509250929050565b600181811c9082168061171457607f821691505b60208210810361173257634e487b7160e01b5f52602260045260245ffd5b50919050565b634e487b7160e01b5f52603260045260245ffd5b601f82111561063857805f5260205f20601f840160051c810160208510156117715750805b601f840160051c820191505b81811015610cce575f815560010161177d565b815167ffffffffffffffff8111156117aa576117aa61154f565b6117be816117b88454611700565b8461174c565b6020601f8211600181146117f0575f83156117d95750848201515b5f19600385901b1c1916600184901b178455610cce565b5f84815260208120601f198516915b8281101561181f57878501518255602094850194600190920191016117ff565b508482101561183c57868401515f19600387901b60f8161c191681555b50505050600190811b01905550565b604081525f61185d6040830185611462565b828103602084015261186f8185611462565b95945050505050565b5f81518060208401855e5f93019283525090919050565b5f610a8b61189d8386611878565b84611878565b634e487b7160e01b5f52601160045260245ffd5b8181038181111561041c5761041c6118a3565b5f600182016118db576118db6118a3565b5060010190565b6001600160a01b03858116825284166020820152604081018390526080606082018190525f9061191490830184611462565b9695505050505050565b5f6020828403121561192e575f80fd5b815161086e81611432565b634e487b7160e01b5f52603160045260245ffdfea2646970667358221220f44d3a207209b23d9ef32062f7949cfd51d1fdf98588ad192c21b4f540bd5d4564736f6c634300081a0033","linkReferences":{}},"methodIdentifiers":{"approve(address,uint256)":"095ea7b3","balanceOf(address)":"70a08231","currentTokenId()":"009a9b7b","getApproved(uint256)":"081812fc","getMintedByWallet(address)":"1b1cac04","isApprovedForAll(address,address)":"e985e9c5","maxPerWallet()":"453c2310","maxSupply()":"d5abeb01","mint()":"1249c58b","mintBatch(uint256)":"20e409b4","mintTo(address)":"755edd17","mintedByWallet(address)":"0d758111","name()":"06fdde03","owner()":"8da5cb5b","ownerOf(uint256)":"6352211e","remainingSupply()":"da0239a6","renounceOwnership()":"715018a6","safeTransferFrom(address,address,uint256)":"42842e0e","safeTransferFrom(address,address,uint256,bytes)":"b88d4fde","setApprovalForAll(address,bool)":"a22cb465","setBaseURI(string)":"55f804b3","setMaxPerWallet(uint256)":"e268e4d3","supportsInterface(bytes4)":"01ffc9a7","symbol()":"95d89b41","tokenByIndex(uint256)":"4f6ccce7","tokenOfOwnerByIndex(address,uint256)":"2f745c59","tokenURI(uint256)":"c87b56dd","totalSupply()":"18160ddd","transferFrom(address,address,uint256)":"23b872dd","transferOwnership(address)":"f2fde38b"},"id":56}