{"abi":[{"type":"constructor","inputs":[],"stateMutability":"nonpayable"},{"type":"receive","stateMutability":"payable"},{"type":"function","name":"donate","inputs":[{"name":"amount","type":"uint256","internalType":"uint256"}],"outputs":[],"stateMutability":"payable"},{"type":"function","name":"getBalance","inputs":[],"outputs":[{"name":"","type":"uint256","internalType":"uint256"}],"stateMutability":"view"},{"type":"function","name":"greet","inputs":[],"outputs":[{"name":"","type":"string","internalType":"string"}],"stateMutability":"view"},{"type":"function","name":"greeting","inputs":[],"outputs":[{"name":"","type":"string","internalType":"string"}],"stateMutability":"view"},{"type":"function","name":"owner","inputs":[],"outputs":[{"name":"","type":"address","internalType":"address"}],"stateMutability":"view"},{"type":"function","name":"setGreeting","inputs":[{"name":"_greeting","type":"string","internalType":"string"}],"outputs":[],"stateMutability":"nonpayable"},{"type":"event","name":"GreetingChanged","inputs":[{"name":"sender","type":"address","indexed":true,"internalType":"address"},{"name":"message","type":"string","indexed":false,"internalType":"string"}],"anonymous":false}],"bytecode":{"object":"0x608060405234801561000f575f80fd5b5060408051808201909152600d81526c48656c6c6f2c20576f726c642160981b60208201525f9061004090826100f0565b50600180546001600160a01b031916331790556101aa565b634e487b7160e01b5f52604160045260245ffd5b600181811c9082168061008057607f821691505b60208210810361009e57634e487b7160e01b5f52602260045260245ffd5b50919050565b601f8211156100eb57805f5260205f20601f840160051c810160208510156100c95750805b601f840160051c820191505b818110156100e8575f81556001016100d5565b50505b505050565b81516001600160401b0381111561010957610109610058565b61011d81610117845461006c565b846100a4565b6020601f82116001811461014f575f83156101385750848201515b5f19600385901b1c1916600184901b1784556100e8565b5f84815260208120601f198516915b8281101561017e578785015182556020948501946001909201910161015e565b508482101561019b57868401515f19600387901b60f8161c191681555b50505050600190811b01905550565b61054e806101b75f395ff3fe608060405260043610610057575f3560e01c806312065fe0146100625780638da5cb5b14610081578063a4136862146100b8578063cfae3217146100d9578063ef690cc0146100fa578063f14faf6f1461010e575f80fd5b3661005e57005b5f80fd5b34801561006d575f80fd5b506040514781526020015b60405180910390f35b34801561008c575f80fd5b506001546100a0906001600160a01b031681565b6040516001600160a01b039091168152602001610078565b3480156100c3575f80fd5b506100d76100d23660046102de565b610121565b005b3480156100e4575f80fd5b506100ed610175565b604051610078919061034c565b348015610105575f80fd5b506100ed610204565b6100d761011c366004610381565b61028f565b5f61012d828483610430565b50336001600160a01b03167fea07f7ca8b8b2cfaab1214b6e1459ad859cf1ff2d60a948a1f9c4644970c895083836040516101699291906104ea565b60405180910390a25050565b60605f8054610183906103ac565b80601f01602080910402602001604051908101604052809291908181526020018280546101af906103ac565b80156101fa5780601f106101d1576101008083540402835291602001916101fa565b820191905f5260205f20905b8154815290600101906020018083116101dd57829003601f168201915b5050505050905090565b5f8054610210906103ac565b80601f016020809104026020016040519081016040528092919081815260200182805461023c906103ac565b80156102875780601f1061025e57610100808354040283529160200191610287565b820191905f5260205f20905b81548152906001019060200180831161026a57829003601f168201915b505050505081565b803410156102db5760405162461bcd60e51b8152602060048201526015602482015274125b9cdd59999a58da595b9d08115512081cd95b9d605a1b604482015260640160405180910390fd5b50565b5f80602083850312156102ef575f80fd5b823567ffffffffffffffff811115610305575f80fd5b8301601f81018513610315575f80fd5b803567ffffffffffffffff81111561032b575f80fd5b85602082840101111561033c575f80fd5b6020919091019590945092505050565b602081525f82518060208401528060208501604085015e5f604082850101526040601f19601f83011684010191505092915050565b5f60208284031215610391575f80fd5b5035919050565b634e487b7160e01b5f52604160045260245ffd5b600181811c908216806103c057607f821691505b6020821081036103de57634e487b7160e01b5f52602260045260245ffd5b50919050565b601f82111561042b57805f5260205f20601f840160051c810160208510156104095750805b601f840160051c820191505b81811015610428575f8155600101610415565b50505b505050565b67ffffffffffffffff83111561044857610448610398565b61045c8361045683546103ac565b836103e4565b5f601f84116001811461048d575f85156104765750838201355b5f19600387901b1c1916600186901b178355610428565b5f83815260208120601f198716915b828110156104bc578685013582556020948501946001909201910161049c565b50868210156104d8575f1960f88860031b161c19848701351681555b505060018560011b0183555050505050565b60208152816020820152818360408301375f818301604090810191909152601f909201601f1916010191905056fea264697066735822122096b050352c590972c05c3ddf977652ef2a4886b1ed3b2e795e21e4627b69025664736f6c634300081a0033","linkReferences":{}},"methodIdentifiers":{"donate(uint256)":"f14faf6f","getBalance()":"12065fe0","greet()":"cfae3217","greeting()":"ef690cc0","owner()":"8da5cb5b","setGreeting(string)":"a4136862"},"id":58}