{"abi":[{"type":"function","name":"allTokens","inputs":[{"name":"","type":"uint256","internalType":"uint256"}],"outputs":[{"name":"","type":"address","internalType":"address"}],"stateMutability":"view"},{"type":"function","name":"createToken","inputs":[{"name":"name","type":"string","internalType":"string"},{"name":"symbol","type":"string","internalType":"string"},{"name":"decimals_","type":"uint8","internalType":"uint8"},{"name":"totalSupply","type":"uint256","internalType":"uint256"}],"outputs":[{"name":"token","type":"address","internalType":"address"}],"stateMutability":"nonpayable"},{"type":"function","name":"getTokenCount","inputs":[],"outputs":[{"name":"","type":"uint256","internalType":"uint256"}],"stateMutability":"view"},{"type":"function","name":"getTokensByCreator","inputs":[{"name":"creator","type":"address","internalType":"address"}],"outputs":[{"name":"","type":"address[]","internalType":"address[]"}],"stateMutability":"view"},{"type":"function","name":"tokensByCreator","inputs":[{"name":"","type":"address","internalType":"address"},{"name":"","type":"uint256","internalType":"uint256"}],"outputs":[{"name":"","type":"address","internalType":"address"}],"stateMutability":"view"},{"type":"event","name":"TokenCreated","inputs":[{"name":"token","type":"address","indexed":true,"internalType":"address"},{"name":"creator","type":"address","indexed":true,"internalType":"address"},{"name":"name","type":"string","indexed":false,"internalType":"string"},{"name":"symbol","type":"string","indexed":false,"internalType":"string"},{"name":"totalSupply","type":"uint256","indexed":false,"internalType":"uint256"}],"anonymous":false}],"bytecode":{"object":"0x6080604052348015600e575f80fd5b506112aa8061001c5f395ff3fe608060405234801561000f575f80fd5b5060043610610055575f3560e01c8063210f5dda14610059578063634282af1461008957806378a895671461009c578063d5c71275146100ac578063d80d03a2146100cc575b5f80fd5b61006c61006736600461034f565b6100df565b6040516001600160a01b0390911681526020015b60405180910390f35b61006c6100973660046103d2565b6101d5565b5f54604051908152602001610080565b6100bf6100ba366004610404565b6101fc565b6040516100809190610424565b61006c6100da36600461046f565b61026f565b5f8085858585336040516100f2906102a3565b6101009594939291906104c5565b604051809103905ff080158015610119573d5f803e3d5ffd5b505f8054600181810183557f290decd9548b62a8d60345a988386fc84ba6bc95484008f6362f93160ef3e56390910180546001600160a01b0385166001600160a01b03199182168117909255338085526020848152604080872080549687018155875295209093018054909116821790559151929450849350917f6e6ae68e7d7d45fbd855c40d1eaafa8de46c5fbec3ee26f1af88730e400bc92c906101c4908a908a908990610513565b60405180910390a350949350505050565b5f81815481106101e3575f80fd5b5f918252602090912001546001600160a01b0316905081565b6001600160a01b0381165f9081526001602090815260409182902080548351818402810184019094528084526060939283018282801561026357602002820191905f5260205f20905b81546001600160a01b03168152600190910190602001808311610245575b50505050509050919050565b6001602052815f5260405f208181548110610288575f80fd5b5f918252602090912001546001600160a01b03169150829050565b610d2c8061054983390190565b634e487b7160e01b5f52604160045260245ffd5b5f82601f8301126102d3575f80fd5b813567ffffffffffffffff8111156102ed576102ed6102b0565b604051601f8201601f19908116603f0116810167ffffffffffffffff8111828210171561031c5761031c6102b0565b604052818152838201602001851015610333575f80fd5b816020850160208301375f918101602001919091529392505050565b5f805f8060808587031215610362575f80fd5b843567ffffffffffffffff811115610378575f80fd5b610384878288016102c4565b945050602085013567ffffffffffffffff8111156103a0575f80fd5b6103ac878288016102c4565b935050604085013560ff811681146103c2575f80fd5b9396929550929360600135925050565b5f602082840312156103e2575f80fd5b5035919050565b80356001600160a01b03811681146103ff575f80fd5b919050565b5f60208284031215610414575f80fd5b61041d826103e9565b9392505050565b602080825282518282018190525f918401906040840190835b818110156104645783516001600160a01b031683526020938401939092019160010161043d565b509095945050505050565b5f8060408385031215610480575f80fd5b610489836103e9565b946020939093013593505050565b5f81518084528060208401602086015e5f602082860101526020601f19601f83011685010191505092915050565b60a081525f6104d760a0830188610497565b82810360208401526104e98188610497565b60ff969096166040840152505060608101929092526001600160a01b031660809091015292915050565b606081525f6105256060830186610497565b82810360208401526105378186610497565b91505082604083015294935050505056fe608060405234801561000f575f80fd5b50604051610d2c380380610d2c83398101604081905261002e916102fd565b808585600361003d8382610426565b50600461004a8282610426565b5050506001600160a01b03811661007b57604051631e4fbdf760e01b81525f60048201526024015b60405180910390fd5b610084816100b1565b506005805460ff60a01b1916600160a01b60ff8616021790556100a78183610102565b5050505050610505565b600580546001600160a01b038381166001600160a01b0319831681179093556040519116919082907f8be0079c531659141344cd1fd0a4f28419497f9722a3daafe3b4186f6b6457e0905f90a35050565b6001600160a01b03821661012b5760405163ec442f0560e01b81525f6004820152602401610072565b6101365f838361013a565b5050565b6001600160a01b038316610164578060025f82825461015991906104e0565b909155506101d49050565b6001600160a01b0383165f90815260208190526040902054818110156101b65760405163391434e360e21b81526001600160a01b03851660048201526024810182905260448101839052606401610072565b6001600160a01b0384165f9081526020819052604090209082900390555b6001600160a01b0382166101f05760028054829003905561020e565b6001600160a01b0382165f9081526020819052604090208054820190555b816001600160a01b0316836001600160a01b03167fddf252ad1be2c89b69c2b068fc378daa952ba7f163c4a11628f55a4df523b3ef8360405161025391815260200190565b60405180910390a3505050565b634e487b7160e01b5f52604160045260245ffd5b5f82601f830112610283575f80fd5b81516001600160401b0381111561029c5761029c610260565b604051601f8201601f19908116603f011681016001600160401b03811182821017156102ca576102ca610260565b6040528181528382016020018510156102e1575f80fd5b8160208501602083015e5f918101602001919091529392505050565b5f805f805f60a08688031215610311575f80fd5b85516001600160401b03811115610326575f80fd5b61033288828901610274565b602088015190965090506001600160401b0381111561034f575f80fd5b61035b88828901610274565b945050604086015160ff81168114610371575f80fd5b6060870151608088015191945092506001600160a01b0381168114610394575f80fd5b809150509295509295909350565b600181811c908216806103b657607f821691505b6020821081036103d457634e487b7160e01b5f52602260045260245ffd5b50919050565b601f82111561042157805f5260205f20601f840160051c810160208510156103ff5750805b601f840160051c820191505b8181101561041e575f815560010161040b565b50505b505050565b81516001600160401b0381111561043f5761043f610260565b6104538161044d84546103a2565b846103da565b6020601f821160018114610485575f831561046e5750848201515b5f19600385901b1c1916600184901b17845561041e565b5f84815260208120601f198516915b828110156104b45787850151825560209485019460019092019101610494565b50848210156104d157868401515f19600387901b60f8161c191681555b50505050600190811b01905550565b808201808211156104ff57634e487b7160e01b5f52601160045260245ffd5b92915050565b61081a806105125f395ff3fe608060405234801561000f575f80fd5b50600436106100b1575f3560e01c8063715018a61161006e578063715018a6146101625780638da5cb5b1461016c57806395d89b4114610187578063a9059cbb1461018f578063dd62ed3e146101a2578063f2fde38b146101da575f80fd5b806306fdde03146100b5578063095ea7b3146100d357806318160ddd146100f657806323b872dd14610108578063313ce5671461011b57806370a082311461013a575b5f80fd5b6100bd6101ed565b6040516100ca919061068a565b60405180910390f35b6100e66100e13660046106da565b61027d565b60405190151581526020016100ca565b6002545b6040519081526020016100ca565b6100e6610116366004610702565b610296565b600554600160a01b900460ff1660405160ff90911681526020016100ca565b6100fa61014836600461073c565b6001600160a01b03165f9081526020819052604090205490565b61016a6102b9565b005b6005546040516001600160a01b0390911681526020016100ca565b6100bd6102cc565b6100e661019d3660046106da565b6102db565b6100fa6101b036600461075c565b6001600160a01b039182165f90815260016020908152604080832093909416825291909152205490565b61016a6101e836600461073c565b6102e8565b6060600380546101fc9061078d565b80601f01602080910402602001604051908101604052809291908181526020018280546102289061078d565b80156102735780601f1061024a57610100808354040283529160200191610273565b820191905f5260205f20905b81548152906001019060200180831161025657829003601f168201915b5050505050905090565b5f3361028a81858561032a565b60019150505b92915050565b5f336102a385828561033c565b6102ae8585856103b7565b506001949350505050565b6102c1610414565b6102ca5f610441565b565b6060600480546101fc9061078d565b5f3361028a8185856103b7565b6102f0610414565b6001600160a01b03811661031e57604051631e4fbdf760e01b81525f60048201526024015b60405180910390fd5b61032781610441565b50565b6103378383836001610492565b505050565b6001600160a01b038381165f908152600160209081526040808320938616835292905220545f1981146103b157818110156103a357604051637dc7a0d960e11b81526001600160a01b03841660048201526024810182905260448101839052606401610315565b6103b184848484035f610492565b50505050565b6001600160a01b0383166103e057604051634b637e8f60e11b81525f6004820152602401610315565b6001600160a01b0382166104095760405163ec442f0560e01b81525f6004820152602401610315565b610337838383610564565b6005546001600160a01b031633146102ca5760405163118cdaa760e01b8152336004820152602401610315565b600580546001600160a01b038381166001600160a01b0319831681179093556040519116919082907f8be0079c531659141344cd1fd0a4f28419497f9722a3daafe3b4186f6b6457e0905f90a35050565b6001600160a01b0384166104bb5760405163e602df0560e01b81525f6004820152602401610315565b6001600160a01b0383166104e457604051634a1406b160e11b81525f6004820152602401610315565b6001600160a01b038085165f90815260016020908152604080832093871683529290522082905580156103b157826001600160a01b0316846001600160a01b03167f8c5be1e5ebec7d5bd14f71427d1e84f3dd0314c0f7b2291e5b200ac8c7c3b9258460405161055691815260200190565b60405180910390a350505050565b6001600160a01b03831661058e578060025f82825461058391906107c5565b909155506105fe9050565b6001600160a01b0383165f90815260208190526040902054818110156105e05760405163391434e360e21b81526001600160a01b03851660048201526024810182905260448101839052606401610315565b6001600160a01b0384165f9081526020819052604090209082900390555b6001600160a01b03821661061a57600280548290039055610638565b6001600160a01b0382165f9081526020819052604090208054820190555b816001600160a01b0316836001600160a01b03167fddf252ad1be2c89b69c2b068fc378daa952ba7f163c4a11628f55a4df523b3ef8360405161067d91815260200190565b60405180910390a3505050565b602081525f82518060208401528060208501604085015e5f604082850101526040601f19601f83011684010191505092915050565b80356001600160a01b03811681146106d5575f80fd5b919050565b5f80604083850312156106eb575f80fd5b6106f4836106bf565b946020939093013593505050565b5f805f60608486031215610714575f80fd5b61071d846106bf565b925061072b602085016106bf565b929592945050506040919091013590565b5f6020828403121561074c575f80fd5b610755826106bf565b9392505050565b5f806040838503121561076d575f80fd5b610776836106bf565b9150610784602084016106bf565b90509250929050565b600181811c908216806107a157607f821691505b6020821081036107bf57634e487b7160e01b5f52602260045260245ffd5b50919050565b8082018082111561029057634e487b7160e01b5f52601160045260245ffdfea2646970667358221220256548091ee9c912c9046b3509ff9a97b1d3aa378e29a5af80fcf7901095c22d64736f6c634300081a0033a2646970667358221220126c9aca563e547f83f60371ea48929ee01cd269f61d0e6e108adfaef63ddacc64736f6c634300081a0033","linkReferences":{}},"methodIdentifiers":{"allTokens(uint256)":"634282af","createToken(string,string,uint8,uint256)":"210f5dda","getTokenCount()":"78a89567","getTokensByCreator(address)":"d5c71275","tokensByCreator(address,uint256)":"d80d03a2"},"id":46}