{"abi":[{"type":"constructor","inputs":[{"name":"_scoreRegistry","type":"address","internalType":"address"},{"name":"_badgeNFT","type":"address","internalType":"address"}],"stateMutability":"nonpayable"},{"type":"function","name":"airdropCount","inputs":[],"outputs":[{"name":"","type":"uint256","internalType":"uint256"}],"stateMutability":"view"},{"type":"function","name":"airdrops","inputs":[{"name":"","type":"uint256","internalType":"uint256"}],"outputs":[{"name":"creator","type":"address","internalType":"address"},{"name":"token","type":"address","internalType":"address"},{"name":"amountPerClaim","type":"uint256","internalType":"uint256"},{"name":"totalAmount","type":"uint256","internalType":"uint256"},{"name":"claimedAmount","type":"uint256","internalType":"uint256"},{"name":"startTime","type":"uint256","internalType":"uint256"},{"name":"endTime","type":"uint256","internalType":"uint256"},{"name":"criteria","type":"tuple","internalType":"struct AirdropVault.EligibilityCriteria","components":[{"name":"minScore","type":"uint256","internalType":"uint256"},{"name":"requiredBadges","type":"uint256[]","internalType":"uint256[]"},{"name":"minEndorsementWeight","type":"uint256","internalType":"uint256"},{"name":"requiresRegistration","type":"bool","internalType":"bool"}]},{"name":"active","type":"bool","internalType":"bool"},{"name":"metadataUri","type":"string","internalType":"string"}],"stateMutability":"view"},{"type":"function","name":"badgeNFT","inputs":[],"outputs":[{"name":"","type":"address","internalType":"contract IBadgeNFT"}],"stateMutability":"view"},{"type":"function","name":"cancelAirdrop","inputs":[{"name":"id","type":"uint256","internalType":"uint256"}],"outputs":[],"stateMutability":"nonpayable"},{"type":"function","name":"claim","inputs":[{"name":"id","type":"uint256","internalType":"uint256"},{"name":"score","type":"uint256","internalType":"uint256"},{"name":"salt","type":"bytes32","internalType":"bytes32"}],"outputs":[],"stateMutability":"nonpayable"},{"type":"function","name":"createAirdrop","inputs":[{"name":"token","type":"address","internalType":"address"},{"name":"amountPerClaim","type":"uint256","internalType":"uint256"},{"name":"totalAmount","type":"uint256","internalType":"uint256"},{"name":"startTime","type":"uint256","internalType":"uint256"},{"name":"endTime","type":"uint256","internalType":"uint256"},{"name":"criteria","type":"tuple","internalType":"struct AirdropVault.EligibilityCriteria","components":[{"name":"minScore","type":"uint256","internalType":"uint256"},{"name":"requiredBadges","type":"uint256[]","internalType":"uint256[]"},{"name":"minEndorsementWeight","type":"uint256","internalType":"uint256"},{"name":"requiresRegistration","type":"bool","internalType":"bool"}]},{"name":"metadataUri","type":"string","internalType":"string"}],"outputs":[{"name":"id","type":"uint256","internalType":"uint256"}],"stateMutability":"nonpayable"},{"type":"function","name":"getAirdrop","inputs":[{"name":"id","type":"uint256","internalType":"uint256"}],"outputs":[{"name":"creator","type":"address","internalType":"address"},{"name":"token","type":"address","internalType":"address"},{"name":"amountPerClaim","type":"uint256","internalType":"uint256"},{"name":"totalAmount","type":"uint256","internalType":"uint256"},{"name":"claimedAmount","type":"uint256","internalType":"uint256"},{"name":"startTime","type":"uint256","internalType":"uint256"},{"name":"endTime","type":"uint256","internalType":"uint256"},{"name":"active","type":"bool","internalType":"bool"},{"name":"metadataUri","type":"string","internalType":"string"}],"stateMutability":"view"},{"type":"function","name":"getAirdropCriteria","inputs":[{"name":"id","type":"uint256","internalType":"uint256"}],"outputs":[{"name":"minScore","type":"uint256","internalType":"uint256"},{"name":"requiredBadges","type":"uint256[]","internalType":"uint256[]"},{"name":"minEndorsementWeight","type":"uint256","internalType":"uint256"},{"name":"requiresRegistration","type":"bool","internalType":"bool"}],"stateMutability":"view"},{"type":"function","name":"hasClaimed","inputs":[{"name":"","type":"uint256","internalType":"uint256"},{"name":"","type":"address","internalType":"address"}],"outputs":[{"name":"","type":"bool","internalType":"bool"}],"stateMutability":"view"},{"type":"function","name":"isEligible","inputs":[{"name":"id","type":"uint256","internalType":"uint256"},{"name":"user","type":"address","internalType":"address"}],"outputs":[{"name":"","type":"bool","internalType":"bool"}],"stateMutability":"view"},{"type":"function","name":"scoreRegistry","inputs":[],"outputs":[{"name":"","type":"address","internalType":"contract IScoreRegistry"}],"stateMutability":"view"},{"type":"event","name":"AirdropCancelled","inputs":[{"name":"id","type":"uint256","indexed":true,"internalType":"uint256"}],"anonymous":false},{"type":"event","name":"AirdropClaimed","inputs":[{"name":"id","type":"uint256","indexed":true,"internalType":"uint256"},{"name":"claimer","type":"address","indexed":true,"internalType":"address"},{"name":"amount","type":"uint256","indexed":false,"internalType":"uint256"}],"anonymous":false},{"type":"event","name":"AirdropCreated","inputs":[{"name":"id","type":"uint256","indexed":true,"internalType":"uint256"},{"name":"creator","type":"address","indexed":true,"internalType":"address"},{"name":"token","type":"address","indexed":false,"internalType":"address"}],"anonymous":false},{"type":"error","name":"AddressEmptyCode","inputs":[{"name":"target","type":"address","internalType":"address"}]},{"type":"error","name":"AddressInsufficientBalance","inputs":[{"name":"account","type":"address","internalType":"address"}]},{"type":"error","name":"AirdropEnded","inputs":[]},{"type":"error","name":"AirdropExhausted","inputs":[]},{"type":"error","name":"AirdropNotActive","inputs":[]},{"type":"error","name":"AirdropNotStarted","inputs":[]},{"type":"error","name":"AlreadyCancelled","inputs":[]},{"type":"error","name":"AlreadyClaimed","inputs":[]},{"type":"error","name":"FailedInnerCall","inputs":[]},{"type":"error","name":"InvalidAmounts","inputs":[]},{"type":"error","name":"InvalidTimeRange","inputs":[]},{"type":"error","name":"NotCreator","inputs":[]},{"type":"error","name":"SafeERC20FailedOperation","inputs":[{"name":"token","type":"address","internalType":"address"}]}],"bytecode":{"object":"0x60c0604052348015600e575f80fd5b506040516117b53803806117b5833981016040819052602b91605b565b6001600160a01b039182166080521660a0526087565b80516001600160a01b03811681146056575f80fd5b919050565b5f8060408385031215606b575f80fd5b6072836041565b9150607e602084016041565b90509250929050565b60805160a0516116eb6100ca5f395f818161011f0152818161049c0152610dab01525f818160e0015281816103ca01528181610b880152610c6701526116eb5ff3fe608060405234801561000f575f80fd5b50600436106100a6575f3560e01c8063873f6f9e1161006e578063873f6f9e1461018d5780639d9e5a9f146101ba578063c4a7da90146101dd578063e952f74f146101fe578063ef8687ee14610206578063fe58f2d71461021b575f80fd5b8063052dd94e146100aa5780633eb8104a146100db5780634348e0e91461011a578063592e0e001461014157806360db508214610164575b5f80fd5b6100bd6100b8366004611042565b61022e565b6040516100d299989796959493929190611087565b60405180910390f35b6101027f000000000000000000000000000000000000000000000000000000000000000081565b6040516001600160a01b0390911681526020016100d2565b6101027f000000000000000000000000000000000000000000000000000000000000000081565b61015461014f366004611108565b610342565b60405190151581526020016100d2565b610177610172366004611042565b610539565b6040516100d29a99989796959493929190611132565b61015461019b366004611108565b600260209081525f928352604080842090915290825290205460ff1681565b6101cd6101c8366004611042565b6106a5565b6040516100d2949392919061120e565b6101f06101eb36600461126a565b610732565b6040519081526020016100d2565b6101f05f5481565b61021961021436600461133a565b610876565b005b610219610229366004611042565b610a22565b5f818152600160208190526040822080549181015460028201546003830154600484015460058501546006860154600b870154600c880180548b9a8b9a8b9a8b9a8b9a8b9a8b9a60609a95996001600160a01b039788169995909716979396929591949093919260ff169181906102a490611363565b80601f01602080910402602001604051908101604052809291908181526020018280546102d090611363565b801561031b5780601f106102f25761010080835404028352916020019161031b565b820191905f5260205f20905b8154815290600101906020018083116102fe57829003601f168201915b50505050509050995099509950995099509950995099509950509193959799909294969850565b5f828152600160205260408120600b81015460ff16610364575f915050610533565b5f8481526002602090815260408083206001600160a01b038716845290915290205460ff1615610397575f915050610533565b600a810154600782019060ff168015610435575060405163c3c5a54760e01b81526001600160a01b0385811660048301527f0000000000000000000000000000000000000000000000000000000000000000169063c3c5a54790602401602060405180830381865afa15801561040f573d5f803e3d5ffd5b505050506040513d601f19601f8201168201806040525081019061043391906113a8565b155b15610444575f92505050610533565b5f5b600182015481101561052b575f826001018281548110610468576104686113c3565b905f5260205f2001546004811115610482576104826113d7565b60405163075e18d160e31b81529091506001600160a01b037f00000000000000000000000000000000000000000000000000000000000000001690633af0c688906104d390899085906004016113eb565b602060405180830381865afa1580156104ee573d5f803e3d5ffd5b505050506040513d601f19601f8201168201806040525081019061051291906113a8565b610522575f945050505050610533565b50600101610446565b506001925050505b92915050565b600160208181525f928352604092839020805492810154600282015460038301546004840154600585015460068601548951608081018b5260078801805482526008890180548d51818d0281018d01909e52808e526001600160a01b039c8d169d99909c169b979a969995989497939692949193858401938301828280156105de57602002820191905f5260205f20905b8154815260200190600101908083116105ca575b50505091835250506002820154602082015260039091015460ff9081161515604090920191909152600b830154600c840180549394919092169290919061062490611363565b80601f016020809104026020016040519081016040528092919081815260200182805461065090611363565b801561069b5780601f106106725761010080835404028352916020019161069b565b820191905f5260205f20905b81548152906001019060200180831161067e57829003601f168201915b505050505090508a565b5f8181526001602090815260408083206007810180546009830154600a840154600890940180548651818902810189019097528087526060978997889793949360ff1692909185919083018282801561071b57602002820191905f5260205f20905b815481526020019060010190808311610707575b505050505092509450945094509450509193509193565b5f8585116107535760405163536a71af60e01b815260040160405180910390fd5b8787101561077457604051636c2b7e2d60e11b815260040160405180910390fd5b6107896001600160a01b038a1633308a610aef565b5f8054908061079783611438565b909155505f81815260016020819052604082208054336001600160a01b031991821617825591810180549092166001600160a01b038e1617909155600281018b9055600381018a90556004810191909155600581018890556006810187905590915084600782016108088282611488565b5050600b8101805460ff19166001179055600c81016108288486836115bf565b506040516001600160a01b038b168152339083907f6edfc1e9a2aabf00742f2db30fc70a1208b0d89eadaae2393aa3a5c6358239ec9060200160405180910390a35098975050505050505050565b5f838152600160205260409020600b81015460ff166108a857604051631e232a8760e31b815260040160405180910390fd5b80600501544210156108cd5760405163b820fc9760e01b815260040160405180910390fd5b80600601544211156108f25760405163061ddd4f60e51b815260040160405180910390fd5b5f84815260026020908152604080832033845290915290205460ff161561092c57604051630c8d9eab60e31b815260040160405180910390fd5b8060030154816002015482600401546109459190611679565b111561096457604051632a024b7360e11b815260040160405180910390fd5b61097381600701338585610b5c565b5f8481526002602081815260408084203385529091528220805460ff19166001179055820154600483018054919290916109ae908490611679565b9091555050600281015460018201546109d4916001600160a01b03909116903390610e76565b336001600160a01b0316847f752d3a5de250652e9111e24fea2886c837dadfe50c8479ad3b5511f4c36f20a28360020154604051610a1491815260200190565b60405180910390a350505050565b5f81815260016020526040902080546001600160a01b03163314610a59576040516393687c0b60e01b815260040160405180910390fd5b600b81015460ff16610a7e576040516354e3762560e01b815260040160405180910390fd5b600b8101805460ff19169055600481015460038201545f91610a9f9161168c565b90508015610ac0576001820154610ac0906001600160a01b03163383610e76565b60405183907f8f637812168884b6128d9aea5b9c55ca4089203e1a6a018158055f85c1e72cab905f90a2505050565b6040516001600160a01b038481166024830152838116604483015260648201839052610b569186918216906323b872dd906084015b604051602081830303815290604052915060e01b6020820180516001600160e01b038381831617835250505050610eac565b50505050565b600384015460ff1615610c335760405163c3c5a54760e01b81526001600160a01b0384811660048301527f0000000000000000000000000000000000000000000000000000000000000000169063c3c5a54790602401602060405180830381865afa158015610bcd573d5f803e3d5ffd5b505050506040513d601f19601f82011682018060405250810190610bf191906113a8565b610c335760405162461bcd60e51b815260206004820152600e60248201526d139bdd081c9959da5cdd195c995960921b60448201526064015b60405180910390fd5b835415610d5357604051633d08870560e11b81526001600160a01b03848116600483015260248201849052604482018390527f00000000000000000000000000000000000000000000000000000000000000001690637a110e0a90606401602060405180830381865afa158015610cac573d5f803e3d5ffd5b505050506040513d601f19601f82011682018060405250810190610cd091906113a8565b610d125760405162461bcd60e51b815260206004820152601360248201527224b73b30b634b21039b1b7b93290383937b7b360691b6044820152606401610c2a565b8354821015610d535760405162461bcd60e51b815260206004820152600d60248201526c53636f726520746f6f206c6f7760981b6044820152606401610c2a565b5f5b6001850154811015610e6f575f856001018281548110610d7757610d776113c3565b905f5260205f2001546004811115610d9157610d916113d7565b60405163075e18d160e31b81529091506001600160a01b037f00000000000000000000000000000000000000000000000000000000000000001690633af0c68890610de290889085906004016113eb565b602060405180830381865afa158015610dfd573d5f803e3d5ffd5b505050506040513d601f19601f82011682018060405250810190610e2191906113a8565b610e665760405162461bcd60e51b81526020600482015260166024820152754d697373696e6720726571756972656420626164676560501b6044820152606401610c2a565b50600101610d55565b5050505050565b6040516001600160a01b03838116602483015260448201839052610ea791859182169063a9059cbb90606401610b24565b505050565b5f610ec06001600160a01b03841683610f0d565b905080515f14158015610ee4575080806020019051810190610ee291906113a8565b155b15610ea757604051635274afe760e01b81526001600160a01b0384166004820152602401610c2a565b6060610f1a83835f610f21565b9392505050565b606081471015610f465760405163cd78605960e01b8152306004820152602401610c2a565b5f80856001600160a01b03168486604051610f61919061169f565b5f6040518083038185875af1925050503d805f8114610f9b576040519150601f19603f3d011682016040523d82523d5f602084013e610fa0565b606091505b5091509150610fb0868383610fba565b9695505050505050565b606082610fcf57610fca82611016565b610f1a565b8151158015610fe657506001600160a01b0384163b155b1561100f57604051639996b31560e01b81526001600160a01b0385166004820152602401610c2a565b5080610f1a565b8051156110265780518082602001fd5b604051630a12f52160e11b815260040160405180910390fd5b50565b5f60208284031215611052575f80fd5b5035919050565b5f81518084528060208401602086015e5f602082860101526020601f19601f83011685010191505092915050565b60018060a01b038a16815260018060a01b03891660208201528760408201528660608201528560808201528460a08201528360c082015282151560e08201526101206101008201525f6110de610120830184611059565b9b9a5050505050505050505050565b80356001600160a01b0381168114611103575f80fd5b919050565b5f8060408385031215611119575f80fd5b82359150611129602084016110ed565b90509250929050565b60018060a01b038b16815260018060a01b038a1660208201528860408201528760608201528660808201528560a08201528460c082015261014060e08201525f6101c082018551610140840152602086015160806101608501528181518084526101e0860191506020830193505f92505b808310156111c657835182526020820191506020840193506001830192506111a3565b506040880151610180860152606088015115156101a08601528615156101008601528481036101208601526111fb8187611059565b9f9e505050505050505050505050505050565b5f608082018683526080602084015280865180835260a0850191506020880192505f5b8181101561124f578351835260209384019390920191600101611231565b50506040840195909552505090151560609091015292915050565b5f805f805f805f8060e0898b031215611281575f80fd5b61128a896110ed565b97506020890135965060408901359550606089013594506080890135935060a089013567ffffffffffffffff8111156112c1575f80fd5b89016080818c0312156112d2575f80fd5b925060c089013567ffffffffffffffff8111156112ed575f80fd5b8901601f81018b136112fd575f80fd5b803567ffffffffffffffff811115611313575f80fd5b8b6020828401011115611324575f80fd5b989b979a50959850939692959194602001935050565b5f805f6060848603121561134c575f80fd5b505081359360208301359350604090920135919050565b600181811c9082168061137757607f821691505b60208210810361139557634e487b7160e01b5f52602260045260245ffd5b50919050565b801515811461103f575f80fd5b5f602082840312156113b8575f80fd5b8151610f1a8161139b565b634e487b7160e01b5f52603260045260245ffd5b634e487b7160e01b5f52602160045260245ffd5b6001600160a01b0383168152604081016005831061141757634e487b7160e01b5f52602160045260245ffd5b8260208301529392505050565b634e487b7160e01b5f52601160045260245ffd5b5f6001820161144957611449611424565b5060010190565b634e487b7160e01b5f52604160045260245ffd5b5b81811015611478575f8155600101611465565b5050565b5f81356105338161139b565b81358155602082013536839003601e190181126114a3575f80fd5b8201803567ffffffffffffffff8111156114bb575f80fd5b6020820191508060051b36038213156114d2575f80fd5b6001830167ffffffffffffffff8211156114ee576114ee611450565b6801000000000000000082111561150757611507611450565b80548282558083101561152b57815f5260205f20611529828201858301611464565b505b50805f525060205f205f5b8281101561155257833582820155602090930192600101611536565b505050506040820135600282015561147861156f6060840161147c565b6003830160ff1981541660ff8315151681178255505050565b601f821115610ea757805f5260205f20601f840160051c810160208510156115ad5750805b610e6f601f850160051c830182611464565b67ffffffffffffffff8311156115d7576115d7611450565b6115eb836115e58354611363565b83611588565b5f601f84116001811461161c575f85156116055750838201355b5f19600387901b1c1916600186901b178355610e6f565b5f83815260208120601f198716915b8281101561164b578685013582556020948501946001909201910161162b565b5086821015611667575f1960f88860031b161c19848701351681555b505060018560011b0183555050505050565b8082018082111561053357610533611424565b8181038181111561053357610533611424565b5f82518060208501845e5f92019182525091905056fea2646970667358221220cacbe2025d49ccae64457628a791b7e7d28ad1ea4d914590d9af92ecb67444c564736f6c634300081a0033","linkReferences":{}},"methodIdentifiers":{"airdropCount()":"e952f74f","airdrops(uint256)":"60db5082","badgeNFT()":"4348e0e9","cancelAirdrop(uint256)":"fe58f2d7","claim(uint256,uint256,bytes32)":"ef8687ee","createAirdrop(address,uint256,uint256,uint256,uint256,(uint256,uint256[],uint256,bool),string)":"c4a7da90","getAirdrop(uint256)":"052dd94e","getAirdropCriteria(uint256)":"9d9e5a9f","hasClaimed(uint256,address)":"873f6f9e","isEligible(uint256,address)":"592e0e00","scoreRegistry()":"3eb8104a"},"id":43}