{"abi":[{"type":"constructor","inputs":[{"name":"_name","type":"string","internalType":"string"},{"name":"_symbol","type":"string","internalType":"string"},{"name":"_maxMintAmount","type":"uint256","internalType":"uint256"}],"stateMutability":"nonpayable"},{"type":"function","name":"allowance","inputs":[{"name":"owner","type":"address","internalType":"address"},{"name":"spender","type":"address","internalType":"address"}],"outputs":[{"name":"","type":"uint256","internalType":"uint256"}],"stateMutability":"view"},{"type":"function","name":"approve","inputs":[{"name":"spender","type":"address","internalType":"address"},{"name":"value","type":"uint256","internalType":"uint256"}],"outputs":[{"name":"","type":"bool","internalType":"bool"}],"stateMutability":"nonpayable"},{"type":"function","name":"balanceOf","inputs":[{"name":"account","type":"address","internalType":"address"}],"outputs":[{"name":"","type":"uint256","internalType":"uint256"}],"stateMutability":"view"},{"type":"function","name":"decimals","inputs":[],"outputs":[{"name":"","type":"uint8","internalType":"uint8"}],"stateMutability":"view"},{"type":"function","name":"getMintedBy","inputs":[{"name":"account","type":"address","internalType":"address"}],"outputs":[{"name":"","type":"uint256","internalType":"uint256"}],"stateMutability":"view"},{"type":"function","name":"maxMintAmount","inputs":[],"outputs":[{"name":"","type":"uint256","internalType":"uint256"}],"stateMutability":"view"},{"type":"function","name":"mint","inputs":[{"name":"amount","type":"uint256","internalType":"uint256"}],"outputs":[],"stateMutability":"nonpayable"},{"type":"function","name":"mintTo","inputs":[{"name":"to","type":"address","internalType":"address"},{"name":"amount","type":"uint256","internalType":"uint256"}],"outputs":[],"stateMutability":"nonpayable"},{"type":"function","name":"mintedBy","inputs":[{"name":"","type":"address","internalType":"address"}],"outputs":[{"name":"","type":"uint256","internalType":"uint256"}],"stateMutability":"view"},{"type":"function","name":"name","inputs":[],"outputs":[{"name":"","type":"string","internalType":"string"}],"stateMutability":"view"},{"type":"function","name":"owner","inputs":[],"outputs":[{"name":"","type":"address","internalType":"address"}],"stateMutability":"view"},{"type":"function","name":"renounceOwnership","inputs":[],"outputs":[],"stateMutability":"nonpayable"},{"type":"function","name":"setMaxMintAmount","inputs":[{"name":"_maxMintAmount","type":"uint256","internalType":"uint256"}],"outputs":[],"stateMutability":"nonpayable"},{"type":"function","name":"symbol","inputs":[],"outputs":[{"name":"","type":"string","internalType":"string"}],"stateMutability":"view"},{"type":"function","name":"totalSupply","inputs":[],"outputs":[{"name":"","type":"uint256","internalType":"uint256"}],"stateMutability":"view"},{"type":"function","name":"transfer","inputs":[{"name":"to","type":"address","internalType":"address"},{"name":"value","type":"uint256","internalType":"uint256"}],"outputs":[{"name":"","type":"bool","internalType":"bool"}],"stateMutability":"nonpayable"},{"type":"function","name":"transferFrom","inputs":[{"name":"from","type":"address","internalType":"address"},{"name":"to","type":"address","internalType":"address"},{"name":"value","type":"uint256","internalType":"uint256"}],"outputs":[{"name":"","type":"bool","internalType":"bool"}],"stateMutability":"nonpayable"},{"type":"function","name":"transferOwnership","inputs":[{"name":"newOwner","type":"address","internalType":"address"}],"outputs":[],"stateMutability":"nonpayable"},{"type":"event","name":"Approval","inputs":[{"name":"owner","type":"address","indexed":true,"internalType":"address"},{"name":"spender","type":"address","indexed":true,"internalType":"address"},{"name":"value","type":"uint256","indexed":false,"internalType":"uint256"}],"anonymous":false},{"type":"event","name":"MaxMintAmountUpdated","inputs":[{"name":"oldAmount","type":"uint256","indexed":false,"internalType":"uint256"},{"name":"newAmount","type":"uint256","indexed":false,"internalType":"uint256"}],"anonymous":false},{"type":"event","name":"OwnershipTransferred","inputs":[{"name":"previousOwner","type":"address","indexed":true,"internalType":"address"},{"name":"newOwner","type":"address","indexed":true,"internalType":"address"}],"anonymous":false},{"type":"event","name":"TokensMinted","inputs":[{"name":"to","type":"address","indexed":true,"internalType":"address"},{"name":"amount","type":"uint256","indexed":false,"internalType":"uint256"}],"anonymous":false},{"type":"event","name":"Transfer","inputs":[{"name":"from","type":"address","indexed":true,"internalType":"address"},{"name":"to","type":"address","indexed":true,"internalType":"address"},{"name":"value","type":"uint256","indexed":false,"internalType":"uint256"}],"anonymous":false},{"type":"error","name":"ERC20InsufficientAllowance","inputs":[{"name":"spender","type":"address","internalType":"address"},{"name":"allowance","type":"uint256","internalType":"uint256"},{"name":"needed","type":"uint256","internalType":"uint256"}]},{"type":"error","name":"ERC20InsufficientBalance","inputs":[{"name":"sender","type":"address","internalType":"address"},{"name":"balance","type":"uint256","internalType":"uint256"},{"name":"needed","type":"uint256","internalType":"uint256"}]},{"type":"error","name":"ERC20InvalidApprover","inputs":[{"name":"approver","type":"address","internalType":"address"}]},{"type":"error","name":"ERC20InvalidReceiver","inputs":[{"name":"receiver","type":"address","internalType":"address"}]},{"type":"error","name":"ERC20InvalidSender","inputs":[{"name":"sender","type":"address","internalType":"address"}]},{"type":"error","name":"ERC20InvalidSpender","inputs":[{"name":"spender","type":"address","internalType":"address"}]},{"type":"error","name":"ExceedsMaxMintAmount","inputs":[]},{"type":"error","name":"OwnableInvalidOwner","inputs":[{"name":"owner","type":"address","internalType":"address"}]},{"type":"error","name":"OwnableUnauthorizedAccount","inputs":[{"name":"account","type":"address","internalType":"address"}]},{"type":"error","name":"ZeroMintAmount","inputs":[]}],"bytecode":{"object":"0x608060405234801561000f575f80fd5b50604051610e2e380380610e2e83398101604081905261002e9161017d565b338383600361003d838261026e565b50600461004a828261026e565b5050506001600160a01b03811661007a57604051631e4fbdf760e01b81525f600482015260240160405180910390fd5b6100838161008f565b50600655506103289050565b600580546001600160a01b038381166001600160a01b0319831681179093556040519116919082907f8be0079c531659141344cd1fd0a4f28419497f9722a3daafe3b4186f6b6457e0905f90a35050565b634e487b7160e01b5f52604160045260245ffd5b5f82601f830112610103575f80fd5b81516001600160401b0381111561011c5761011c6100e0565b604051601f8201601f19908116603f011681016001600160401b038111828210171561014a5761014a6100e0565b604052818152838201602001851015610161575f80fd5b8160208501602083015e5f918101602001919091529392505050565b5f805f6060848603121561018f575f80fd5b83516001600160401b038111156101a4575f80fd5b6101b0868287016100f4565b602086015190945090506001600160401b038111156101cd575f80fd5b6101d9868287016100f4565b925050604084015190509250925092565b600181811c908216806101fe57607f821691505b60208210810361021c57634e487b7160e01b5f52602260045260245ffd5b50919050565b601f82111561026957805f5260205f20601f840160051c810160208510156102475750805b601f840160051c820191505b81811015610266575f8155600101610253565b50505b505050565b81516001600160401b03811115610287576102876100e0565b61029b8161029584546101ea565b84610222565b6020601f8211600181146102cd575f83156102b65750848201515b5f19600385901b1c1916600184901b178455610266565b5f84815260208120601f198516915b828110156102fc57878501518255602094850194600190920191016102dc565b508482101561031957868401515f19600387901b60f8161c191681555b50505050600190811b01905550565b610af9806103355f395ff3fe608060405234801561000f575f80fd5b5060043610610111575f3560e01c806370a082311161009e5780639fa52dda1161006e5780639fa52dda1461022d578063a0712d6814610255578063a9059cbb14610268578063dd62ed3e1461027b578063f2fde38b146102b3575f80fd5b806370a08231146101da578063715018a6146102025780638da5cb5b1461020a57806395d89b4114610225575f80fd5b8063239c70ae116100e4578063239c70ae1461017d57806323b872dd14610186578063313ce567146101995780633cef28d2146101a8578063449a52f8146101c7575f80fd5b806306fdde0314610115578063088a4ed014610133578063095ea7b31461014857806318160ddd1461016b575b5f80fd5b61011d6102c6565b60405161012a9190610952565b60405180910390f35b610146610141366004610987565b610356565b005b61015b6101563660046109b9565b6103a3565b604051901515815260200161012a565b6002545b60405190815260200161012a565b61016f60065481565b61015b6101943660046109e1565b6103bc565b6040516012815260200161012a565b61016f6101b6366004610a1b565b60076020525f908152604090205481565b6101466101d53660046109b9565b6103df565b61016f6101e8366004610a1b565b6001600160a01b03165f9081526020819052604090205490565b6101466104a0565b6005546040516001600160a01b03909116815260200161012a565b61011d6104b3565b61016f61023b366004610a1b565b6001600160a01b03165f9081526007602052604090205490565b610146610263366004610987565b6104c2565b61015b6102763660046109b9565b61056b565b61016f610289366004610a3b565b6001600160a01b039182165f90815260016020908152604080832093909416825291909152205490565b6101466102c1366004610a1b565b610578565b6060600380546102d590610a6c565b80601f016020809104026020016040519081016040528092919081815260200182805461030190610a6c565b801561034c5780601f106103235761010080835404028352916020019161034c565b820191905f5260205f20905b81548152906001019060200180831161032f57829003601f168201915b5050505050905090565b61035e6105ba565b600680549082905560408051828152602081018490527f017a9a4041364044f8c8e5ed5a0f36b52725b6fddbbd17ee9f2f8034e6806678910160405180910390a15050565b5f336103b08185856105e7565b60019150505b92915050565b5f336103c98582856105f9565b6103d4858585610674565b506001949350505050565b805f036103ff57604051630856e64360e21b815260040160405180910390fd5b6006548111156104225760405163bb954e0160e01b815260040160405180910390fd5b6001600160a01b0382165f9081526007602052604081208054839290610449908490610aa4565b90915550610459905082826106d1565b816001600160a01b03167f3f2c9d57c068687834f0de942a9babb9e5acab57d516d3480a3c16ee165a42738260405161049491815260200190565b60405180910390a25050565b6104a86105ba565b6104b15f610709565b565b6060600480546102d590610a6c565b805f036104e257604051630856e64360e21b815260040160405180910390fd5b6006548111156105055760405163bb954e0160e01b815260040160405180910390fd5b335f9081526007602052604081208054839290610523908490610aa4565b90915550610533905033826106d1565b60405181815233907f3f2c9d57c068687834f0de942a9babb9e5acab57d516d3480a3c16ee165a42739060200160405180910390a250565b5f336103b0818585610674565b6105806105ba565b6001600160a01b0381166105ae57604051631e4fbdf760e01b81525f60048201526024015b60405180910390fd5b6105b781610709565b50565b6005546001600160a01b031633146104b15760405163118cdaa760e01b81523360048201526024016105a5565b6105f4838383600161075a565b505050565b6001600160a01b038381165f908152600160209081526040808320938616835292905220545f19811461066e578181101561066057604051637dc7a0d960e11b81526001600160a01b038416600482015260248101829052604481018390526064016105a5565b61066e84848484035f61075a565b50505050565b6001600160a01b03831661069d57604051634b637e8f60e11b81525f60048201526024016105a5565b6001600160a01b0382166106c65760405163ec442f0560e01b81525f60048201526024016105a5565b6105f483838361082c565b6001600160a01b0382166106fa5760405163ec442f0560e01b81525f60048201526024016105a5565b6107055f838361082c565b5050565b600580546001600160a01b038381166001600160a01b0319831681179093556040519116919082907f8be0079c531659141344cd1fd0a4f28419497f9722a3daafe3b4186f6b6457e0905f90a35050565b6001600160a01b0384166107835760405163e602df0560e01b81525f60048201526024016105a5565b6001600160a01b0383166107ac57604051634a1406b160e11b81525f60048201526024016105a5565b6001600160a01b038085165f908152600160209081526040808320938716835292905220829055801561066e57826001600160a01b0316846001600160a01b03167f8c5be1e5ebec7d5bd14f71427d1e84f3dd0314c0f7b2291e5b200ac8c7c3b9258460405161081e91815260200190565b60405180910390a350505050565b6001600160a01b038316610856578060025f82825461084b9190610aa4565b909155506108c69050565b6001600160a01b0383165f90815260208190526040902054818110156108a85760405163391434e360e21b81526001600160a01b038516600482015260248101829052604481018390526064016105a5565b6001600160a01b0384165f9081526020819052604090209082900390555b6001600160a01b0382166108e257600280548290039055610900565b6001600160a01b0382165f9081526020819052604090208054820190555b816001600160a01b0316836001600160a01b03167fddf252ad1be2c89b69c2b068fc378daa952ba7f163c4a11628f55a4df523b3ef8360405161094591815260200190565b60405180910390a3505050565b602081525f82518060208401528060208501604085015e5f604082850101526040601f19601f83011684010191505092915050565b5f60208284031215610997575f80fd5b5035919050565b80356001600160a01b03811681146109b4575f80fd5b919050565b5f80604083850312156109ca575f80fd5b6109d38361099e565b946020939093013593505050565b5f805f606084860312156109f3575f80fd5b6109fc8461099e565b9250610a0a6020850161099e565b929592945050506040919091013590565b5f60208284031215610a2b575f80fd5b610a348261099e565b9392505050565b5f8060408385031215610a4c575f80fd5b610a558361099e565b9150610a636020840161099e565b90509250929050565b600181811c90821680610a8057607f821691505b602082108103610a9e57634e487b7160e01b5f52602260045260245ffd5b50919050565b808201808211156103b657634e487b7160e01b5f52601160045260245ffdfea2646970667358221220fdb914d21c3a3db3c346fb386ea530c75ce8b6f9d1156f5dfc3583fe82cf43a364736f6c634300081a0033","linkReferences":{}},"methodIdentifiers":{"allowance(address,address)":"dd62ed3e","approve(address,uint256)":"095ea7b3","balanceOf(address)":"70a08231","decimals()":"313ce567","getMintedBy(address)":"9fa52dda","maxMintAmount()":"239c70ae","mint(uint256)":"a0712d68","mintTo(address,uint256)":"449a52f8","mintedBy(address)":"3cef28d2","name()":"06fdde03","owner()":"8da5cb5b","renounceOwnership()":"715018a6","setMaxMintAmount(uint256)":"088a4ed0","symbol()":"95d89b41","totalSupply()":"18160ddd","transfer(address,uint256)":"a9059cbb","transferFrom(address,address,uint256)":"23b872dd","transferOwnership(address)":"f2fde38b"},"id":53}